:020000040007F3
:103000000868002049340700513407005334070092
:1030100055340700573407005934070000000000FA
:103020000000000000000000000000005B3407000A
:103030005D340700000000005F34070061340700C2
:103040005D37070063340700A53C0700D937070048
:103050006334070063340700A535070063340700B5
:1030600063340700633407006334070063340700E8
:1030700063340700633407006334070063340700D8
:1030800063340700B5370700633407006334070073
:103090002138070063340700253807006334070030
:1030A00063340700633407006334070063340700A8
:1030B00063340700633407000000000000000000D4
:1030C0006334070063340700633407006334070088
:1030D0006334070063340700633407000000000016
:1030E00000000000000000000000000000000000E0
:1030F00000000000000000000000000000000000D0
:1031000000000000000000000000000000000000BF
:1031100000000000000000000000000000000000AF
:10340000DFF80CD000F0ACF800480047BD4D0700D5
:1034100008680020056885F308884068FF2464B2C6
:10342000EFF30585002D01D1A64600472546064647
:1034300021273FBAF0B40024002500260027F0B46D
:10344000F92040B200470000064880470648004780
:10345000FEE7FEE7FEE7FEE7FEE7FEE7FEE7FEE744
:10346000FEE7FEE75538070001340700202A04DB99
:10347000203A00FA02F1002070479140C2F1200387
:1034800020FA03F31943904070470000004870474A
:10349000EC85070040EA01039B0703D009E008C957
:1034A000121F08C0042AFAD203E011F8013B00F809
:1034B000013B521EF9D27047D2B201E000F8012B55
:1034C000491EFBD270470022F6E710B513460A46A4
:1034D00004461946FFF7F0FF204610BD421C10F8C5
:1034E000011B0029FBD1801A7047034611F8012BFC
:1034F00000F8012B002AF9D1184670472DE9F05F3A
:103500000546002092469B46884606468146402452
:103510001BE0284641464746224600F033F8534612
:103520005A46C01A914110D3114618462246FFF759
:103530009DFF2D1A67EB01084F462246012000210E
:10354000FFF794FF17EB00094E41201EA4F1010480
:10355000DFDC484631462A464346BDE8F09F00007E
:10356000064C074D06E0E06840F0010394E80700D0
:1035700098471034AC42F6D3FFF746FFD4880700D3
:10358000F4880700202A04DB203A21FA02F0002107
:10359000704721FA02F3D040C2F120029140084363
:1035A000194670472DE9F04700268CB0DFF860918E
:1035B000B0464FF48075012437460696284603F03E
:1035C00053F838B1D9F80403204203D0284603F059
:1035D00041F826432D1D64007F1CADB2082FEDD3AA
:1035E0004FF4BE74204603F03FF848B1204603F084
:1035F00031F846F0004606AA0121002003F016F833
:10360000444D16F0FF0F15D00127002437420DD08E
:1036100009EB8401D1F81005D1F81015C0F304208E
:1036200055F82420C1F3014102B190477F00641C8A
:10363000082CEBD3002E67DA4FF0FF30CDE908807D
:1036400000263446281910F8507F90F9000027F022
:10365000C008401C44D009A9404601F08FFC58B373
:103660004FEA9719404600F039FF55F820701FB116
:10367000B9F1030F03D00FE0B9F1030F30D108A85F
:103680004FEAD80208F00703815C4FF0010C0CFAF6
:1036900003FC41EA0C0181544FF0A04101EB88008A
:1036A000D0F8000706A9C0F3014A404601F066FCC5
:1036B00018B1BAF1020F03D012E0BAF1030F0FD123
:1036C000B9F1030F08D1BAF1020F1BD00221404615
:1036D00002F094FF761CF6B217B149464046B8474F
:1036E000641C042CAED3002E0ED06A4601210020AB
:1036F00002F09CFF06990098884205D00690089831
:1037000009909DE70321E2E70CB0BDE8F0870000D7
:1037100000600040D435002000F01F0201219140DC
:103720004009800000F1E020C0F88012704700F0EE
:103730001F02012191404009800000F1E020C0F803
:103740000011704700F01F020121914040098000E4
:1037500000F1E020C0F80012704700002DE9F041B0
:103760004FF48077384601F0E9FC0124104EA5079C
:1037700048B1384601F0E9FC0120C5F8080374702F
:10378000002000F0C3FE4FF48277384601F0D6FCEB
:1037900000280BD0384601F0D8FC0220C5F80803F9
:1037A000B470BDE8F041012000F0B0BEBDE8F0818A
:1037B0002C36002007480021C0F84011C0F8441101
:1037C000C0F84811C0F84C11C0F80011C0F804113D
:1037D00004F040B900100140F8B510480E4D044601
:1037E0004FF48C7103F046F9002813D00026C4F87A
:1037F0001861D4F818010090A87E2C46FF2801D04B
:1038000002F00DFF66762671216801B0201DBDE82B
:10381000F0400847F8BD000094350020003000401B
:1038200004F0B4B8094810B5406848B18047002892
:103830000AD0BDE81040064A40F28F1100F08EBD5C
:10384000BDE8104001F08CB910BD0000402C0020F4
:1038500074880700F0B598480023021D01780125FF
:10386000101D4FF08056062907D11478240704D183
:103870000478C4F30314032C02D0062904D00FE00B
:103880008F4F8E4C7C670EE01478240708D10478A3
:10389000C4F30314032C06D0042C04D0052C02D04E
:1038A000062907D00EE0D6F84442864FC4F34234CE
:1038B0003C6002E01478240704D10478C4F30314B4
:1038C000032C02D0062906D011E07F4C276827F090
:1038D000807727600EE01478240708D10478C4F3B9
:1038E0000314032C06D0042C04D0052C02D0062986
:1038F0000AD011E04FF08044C4F80C31C4F8103104
:10390000704C241F236002E01478240704D104784B
:10391000C4F30314032C02D0062905D00CE0694F30
:10392000032464373C600AE01478240704D1047847
:10393000C4F30314032C02D006290DD014E0634F06
:1039400005243C60614C78342560604C0834236069
:103950003F243F1D3C6002E01478240704D1047822
:10396000C4F30314052C02D0062957D068E0584947
:103970000968584A11605649091D0968121D1160ED
:10398000534908310968121D116051490C31096809
:10399000121D11604E4910310968121D11604C4909
:1039A00014310968121D1160494918310968494AE2
:1039B0002032116046491C310968121D11604449CA
:1039C00020310968121D1160414924310968121D16
:1039D00011603F4928310968121D11603C492C31A2
:1039E0000968121D11603A4930310968394A40327C
:1039F0001160374934310968121D1160344938317A
:103A00000968121D116032493C310968121D1160AC
:103A10002F4940310968121D116002E01178090731
:103A20000ED10078C0F30310032803D0042801D07E
:103A3000052805D1D6F85802274900F04F00086044
:103A400021487438016841F470010160BFF34F8F61
:103A5000BFF36F8F4FF01021D1F80002002803DB75
:103A6000D1F80402002822DA1C4A15601C480468B8
:103A7000002CFCD01524C1F800420568002DFCD0B4
:103A8000C1F8044201680029FCD0136001680029D4
:103A9000FCD0BFF34F8F0C48F0380168114A01F495
:103AA000E06111430160BFF34F8F00BFFDE70F4995
:103AB0000D480860F0BD0000E00F00F00DF0ADBA59
:103AC00000C007403C050040FCED00E010560040FF
:103AD0000404001020C50040E40E004004E501404D
:103AE00000E401400400FA050090D003DC2C002023
:103AF000F8B50E46054601F01DF801234CF2387268
:103B00000221284603F03EFEC4B2AC4206D00AA110
:103B1000042002F01FFF4FF0FF3408E06A460A213C
:103B2000204600F07DFF9DF800002228F6D10E48C7
:103B300046628460F8BD0000544654503A44454201
:103B400055473A5B6F70656E5F746674705F736F34
:103B5000636B65745D20736F636B6574206572724F
:103B60006F720D0A00000000942C002070B50D4605
:103B7000044603F0E7FD224607A1042002F0EEFE12
:103B8000134A0020012310702846BDE870402832F7
:103B900010A103F05FBC0000544654503A44454223
:103BA00055473A5B544654505F726561645F726575
:103BB00071756573745D205365742054667470204C
:103BC000536572766572203A2025780D0A00000050
:103BD000942C00206F637465740000003EB51F4C88
:103BE000A06908B36169E06988421DD3206906288D
:103BF0000FD2DFE800F00E030E0B0E0B174A012365
:103C0000283217A1184803F025FC02E0E08803F0F1
:103C1000EBFB0020E061206A401C2062052803D3F2
:103C200000F088FF0120207001A8009002AB40F254
:103C3000EA52616AA06803F0CFF901B2002904DA00
:103C40000AA1042002F086FE05E0BDF80430029AC5
:103C5000606A03F0F1F820783EBD0000942C00204B
:103C60006F63746574000000F437002054465450AC
:103C70003A44454255473A5B726563765F756470B6
:103C80005F7061636B65745D20726563765F7564F8
:103C9000705F7061636B6574206572726F720D0A7C
:103CA000000000000448017F04480029024901D0B7
:103CB00004F001B803F070BFB435002000200040CC
:103CC000F8B5144C0546A068804720698047216AF2
:103CD000C5F30740C5F3072699B1626A8AB18DF82A
:103CE00000008DF801608DF802500321684690476E
:103CF000A0698047054660698047E068804728469C
:103D0000F8BDE1698847E16930468847E169E8B272
:103D10008847EDE75C2C00202DE9F8431A4C054656
:103D20001746A0688846804720698047216AC5F306
:103D30000740C5F30726A1B1626A92B18DF8000071
:103D40008DF801608DF80250032168469047226A81
:103D500039464046904760698047E0688047BDE843
:103D6000F883E1698847E16930468847E169E8B24C
:103D70008847002505E0A069804708F805006D1C0C
:103D8000ADB2BD42F7D3E6E75C2C0020F8B5164C87
:103D900005460E46A068804720698047626A45F064
:103DA00004058AB1280C8DF80000280A8DF801005E
:103DB0008DF802508DF803600421684690476069D1
:103DC0008047E0688047F8BDE169C5F30740884750
:103DD000E169C5F307208847E169E8B28847E169EE
:103DE00030468847EBE700005C2C0020F8B51A4C01
:103DF00005461646A0680F46804720698047626ADC
:103E000045F004059AB1280C8DF80000280A8DF8B9
:103E100001008DF80250032168469047626A3146DE
:103E20003846904760698047E0688047F8BDE1699F
:103E3000C5F307408847E169C5F307208847E16972
:103E4000E8B28847002504E0E169785D88476D1C89
:103E5000ADB2B542F8D3E5E75C2C00200FB41CB539
:103E60000246002007AC00290BD0491ECDE90021F5
:103E7000054B6A462146069800F018F8009A002182
:103E800011701CBC5DF814FB0F43070002E008C86A
:103E9000121F08C1002AFAD170477047002001E0C4
:103EA00001C1121F002AFBD1704700002DE9FF4F0E
:103EB0008DB00F460546002606E025280BD0DDE92B
:103EC0000F1290476D1C761C28780028F5D111B090
:103ED0003046BDE8F08F0024A246A1460122EC49FD
:103EE00000E0044315F8013F203B02FA03F00842CA
:103EF000F7D128782A2810D06FF02F022878A0F167
:103F00003001092914D80AEB8A0102EB410144F07F
:103F1000020400EB010A6D1CF0E701CF5FEA000A22
:103F200003D544F40054CAF1000A44F002046D1CA5
:103F300028782E2817D115F8010F44F004042A28F8
:103F40000ED06FF02F022878A0F1300109290AD88D
:103F500009EB890102EB410100EB01096D1CF2E75D
:103F600057F8049B6D1C28786C280FD006DC4C2871
:103F700017D068280DD06A2814D104E0742810D016
:103F80007A280FD10DE044F400140AE044F48014C0
:103F900001E044F440146978814202D104F58014B0
:103FA0006D1C6D1C2A786E2A1FD00CDC632A31D060
:103FB00004DC002A8BD0582A11D1A3E0642A68D0EF
:103FC000692A0CD165E0732A2ED004DC6F2A73D0E5
:103FD000702A04D19BE0752A6FD0782A6ED01046E3
:103FE000DDE90F129047761C50E1C4F3025002281D
:103FF00006D0032809D0042801CF09D0066045E186
:1040000001CFF117C0E9006140E101CF06803DE139
:1040100006703BE117F8040B8DF8000000208DF8C6
:104020000100EB46012003E057F804BB4FF0FF30DE
:1040300061074FF0000102D40DE008F1010188464C
:1040400049450FDA8045F8DB1BF808100029F4D148
:1040500008E008F1010188468142FADB1BF80810EC
:104060000029F6D1DDE90F23AAEB0800814621469D
:1040700000F036F9304400EB080604E0DDE90F12E9
:104080001BF8010B9047B8F10108F7D221464846CA
:10409000F7E00A21C4F302534FF0000B0891022B02
:1040A00004D001CFC117032B09D00AE0FF1D27F070
:1040B0000707F7E8020108E032E01FE020E000B265
:1040C000C117042B01D140B2C117031E71F10003C7
:1040D00007DA4FF0000CD0EB0C006CEB01012D2344
:1040E00002E0230504D52B238DF82430012303E0BF
:1040F000E30701D02023F7E7984658E00A2110E0B3
:1041000010210EE010204FF0000B08900CE0102161
:104110004FF0000B44F004044FF00809089103E04D
:1041200008214FF0000B0891C4F30253022B04D076
:1041300001CF0021032B06D006E0FF1D27F0070763
:10414000F7E8020103E080B2042B00D1C0B24FF0C7
:10415000000823072BD5702A07D0DDF820C08CF08B
:10416000100C5CEA0B0C05D00EE040238DF82430D7
:10417000012308E050EA010306D030238DF82430F3
:104180008DF8252002239846DDF820C08CF0080C1D
:104190005CEA0B0C0BD150EA010301D1630706D591
:1041A00030238DF824304FF00108A9F10109582A75
:1041B00004D038A20B9208AA0A920BE03AA2F9E7BF
:1041C0005B46089AFFF79AF90B9B9B5C0A9A521E72
:1041D0000A92137050EA0102F2D10A98ADEB000086
:1041E00000F1200B600702D524F4803401E04FF089
:1041F0000109D94502DDA9EB0B0000E0002000EB2E
:104200000B0141440890AAEB010AE00306D4DDE962
:104210000F232146504600F063F806444FF0000992
:1042200008E009A911F80900DDE90F12904709F12A
:104230000109761CC145F4DBE0030CD5DDE90F2351
:104240002146504600F04CF8064404E0DDE90F1228
:1042500030209047761C0899481E08900029F5DC0C
:1042600008E00A980A990078491C0A91DDE90F12C2
:104270009047761CBBF10001ABF1010BF1DC21464C
:104280005046DDE90F2300F019F806446D1C1BE6CB
:10429000092801003031323334353637383961621C
:1042A00063646566000000003031323334353637E0
:1042B0003839414243444546000000002DE9F041B1
:1042C000044600251E461746880404D405E03946F6
:1042D0002020B0476D1C641EF9D52846BDE8F0814A
:1042E0002DE9F041044600251E469046C80301D53D
:1042F000302700E02027880404D505E041463846F1
:10430000B0476D1C641EF9D52846BDE8F0814A68A7
:10431000002A06D00A68531C0B6010704868401EC3
:104320004860704770B50D460646144605A1012049
:1043300002F010FB224629463046BDE8704000F0EE
:1043400019B800004150505F4552524F523A455201
:10435000524F523A466174616C0D0A000EB5ADF8C9
:104360000010CDE901206A46002144F20100FFF768
:10437000D9FF0EBD08B501238DF800309DF800303F
:10438000144B186059609A606FF48041401807D050
:1043900001280FD1DA60D86800889861D86807E0F2
:1043A0001A611869806858611869008898611869ED
:1043B0004068D861186858689868D868186958695A
:1043C0009869D86972B600BF9DF800000028FBD13B
:1043D00062B608BD40360020084910B50868C978A3
:1043E00000BA20F0FF00084305A1FFF7BFFB00BFA4
:1043F000FFF7F4FB0028FBD010BD0000042C0020C8
:104400006669726D776172652E62696E00000000E8
:104410002DE9F041064608680C46411C4FF0A047C4
:104420004FF0010506D005FA00F1C7F8081520681D
:1044300002F0DAF86068411C02D0002102F0C1F8F5
:104440003079204901EB4010A169007F00283068D5
:10445000C0F8241525D0607D227D31681043C1F855
:104460006C05D4E900123068C0F80C15C0F81425AA
:1044700024E0A068411C02D0002102F0A2F8E0680C
:10448000411C05D08540C7F80855E06802F0ACF83B
:10449000D4E902123068C0F80825C0F81015BDE84C
:1044A000F081607D217D32680843C2F86C05D4E953
:1044B00000123068C0F81425C0F80C15207D0128C2
:1044C000D7D0ECE7B4350020002901DA002070478E
:1044D000026811440160012070470000024908444D
:1044E00090F9300070470000D435002038B10549FC
:1044F000814204D80449814201D90120704700203B
:1045000070470000E02C0020F02C002070B5084C13
:10451000050009D010342168002907D00868206000
:10452000496828468847F6E70834F4E770BD00007C
:104530002C36002070B50446082802D94FF0FF3011
:1045400070BD4FF4847000EB441005461021FFF756
:104550001DFC2846FFF7B4FB0028FAD14FF4027087
:1045600000EB44101F21FFF711FC0C480121A14072
:1045700082888A430A498280002021F81400074972
:10458000891D08554FF4427000EB44142046FFF794
:1045900097FB0028FAD1012070BD0000842C002078
:1045A000E43700202DE9F05F26484168F1B3DFF8D9
:1045B00098B00E688146DBF8004087688078E11B80
:1045C00021F07F45ED1CB0B9DFF880804FF48030DA
:1045D000C8F84403C8F804031120FFF79DF8112020
:1045E000FFF7A5F84FF0010AC8F800A02F2000F04F
:1045F000FBFD89F802A0B54200D23546124BE819FE
:104600003C3320F07F401860DBF800105A46091B4D
:1046100021F07F41001B20F07F40C91C81420FD94F
:10462000106818602F2000F0DFFD00E004E0BDE816
:10463000F05F1120FFF786B8BDE8F05F02F06ABEB8
:10464000BDE8F09F102C002004150140001001402F
:10465000F0B54FF0FF3622B11268D24300230A4D65
:104660000DE03246FAE7C45C62400824D70700D068
:1046700037462F4087EA5202641EF7D15B1C8B42FB
:10468000F1D3D043F0BD00002083B8ED10B50C4647
:1046900006281ED2DFE800F003070B10141820468E
:1046A00003F0C6FD13E0204603F00AFD0FE020787A
:1046B000BDE8104003F0E8BD03F02EFD207006E0D9
:1046C000204603F0F3FD02E0204603F028FD002021
:1046D00010BD4FF0FF3010BD2DE9F0410C46002118
:1046E00002464F1E08464FF498554FF4A056102A24
:1046F00061D2DFE802F0080B17131A1E222C364392
:10470000464A574E535A03F0E8FD4BE014B1204699
:1047100004F10801BDE8F04103F015BD208803F065
:1047200098FC3FE003F0AFFC05E0208803F071FD4A
:1047300038E003F0B7FC208034E02088010A2846E6
:10474000FFF724FB21783046FFF720FB2AE03046B4
:10475000FFF7B6FA06462846FFF7B2FA06EB002046
:10476000E9E7164882782270C27862700279A270F6
:104770004279E27080792071617113E003F044FEA8
:1047800010E0204603F055FE0CE0204603F000FE4A
:1047900008E02078BDE8F04103F070BE03F028FE89
:1047A00005E020700020BDE8F08103F018FEC0B2E3
:1047B00041B2491CF5D13846F5E700005C2C0020D9
:1047C000014800F0CBBC0000A0860100044A09B9F2
:1047D000002313705268002A00D010477047000071
:1047E000082C00200E4910B50A784C780023A2420C
:1047F00012D0521CD2B20A70022A00D10B70084AA1
:104800000B78183252F8232002608868104420F098
:104810007F408860012010BD0360002010BD0000B3
:10482000102C0020F8B506461A481F461546007899
:104830000C46C00708D03046FFF758FE30B13CB1F7
:10484000200507D00620F8BD0120F8BD0220F8BDE4
:104850000320F8BD3068A04204D8716804EB05302D
:10486000884201D90520F8BD7DB1684602F064F99F
:1048700068B100980221C0E900670172210B8181B3
:10488000058202F0ADF90020F8BD0420F8BD072034
:10489000F8BD0000302C002070B50E4C06460D000F
:1048A000206820F0010020600FD00BA1032002F04F
:1048B00051F8206840F0020020607268002A07D09A
:1048C00029463046BDE87040104720F00200F3E76B
:1048D00070BD0000002C00203A494E464F3A476513
:1048E0006E65726174696E67206661696C75726568
:1048F0000D0A00000348406E042801D000207047D4
:1049000001207047603600202DE9F84307461D4816
:10491000DDF820801E46007815460C46C0070CD0F6
:104920003846FFF7E3FD50B15DB154B145EA0400EC
:10493000800708D00620BDE8F8830120FBE70220AD
:10494000F9E70320F7E73868A04204D8786804EB59
:104950008601884201D20520EDE77EB1684602F06B
:10496000EBF868B100980121C0E900780172C0E954
:104970000354868202F034F90020DCE70420DAE7F1
:104980000720D8E7302C00202DE9F04142F20861E1
:1049900001EB401542F20871002601EB4014284655
:1049A000FFF78EF907462046FFF78AF900EB07204C
:1049B00007043F0C09D02846FFF782F90646204637
:1049C000FFF77EF900EB062086B2BE42E7D1304603
:1049D000BDE8F0812DE9F04142F2080101EB4015FC
:1049E00042F20811002601EB40142846FFF768F94F
:1049F00007462046FFF764F900EB072007043F0C49
:104A000009D02846FFF75CF906462046FFF758F91B
:104A100000EB062086B2BE42E7D13046BDE8F08109
:104A200070B515460446082802D94FF0FF3070BD16
:104A3000600108306FF004060D2970D2DFE801F044
:104A4000070C1114242D6F3D4A4E52596300FFF795
:104A500037F900F0F00002E041F2086044E028700D
:104A60004FE041F208503FE041F2083000EB4410C3
:104A7000FFF726F9064641F2082000EB4410FFF745
:104A80001FF906EB0020EAE740F6084000EB44106F
:104A900004222946FFF740F933E041F2081000EB09
:104AA0004410FFF70DF9064641F2080000EB4410F0
:104AB000FFF706F906EB002022E0FFF701F900F00E
:104AC0000F00012825D142F6087000EB4410FFF7D3
:104AD000F7F815E02046FFF77DFF11E02046FFF7CD
:104AE00053FF0DE04FF4427000EB4410FFF7E8F87D
:104AF000B5E7FFF7E5F80128F0D00A4830F81400D0
:104B00002880012070BDFFF7DBF800F00F000128BE
:104B100001D0304670BD0448005DA0E7FFE76FF0AC
:104B2000010070BDE43700208A2C002002F005BF90
:104B300002F00FBF10B5084800240470204602F0B0
:104B400001FE0648448084800461C4808461C4619D
:104B50000462047010BD0000F4370020942C002083
:104B6000F8B51E4C2078002836D0E068002668B1E1
:104B70000025607800282FD1684648DF052807D037
:104B800040B1174A8921FFF7E9FB0AE00125F0E768
:104B9000012606E0009801F0EDFA216909B10098BC
:104BA0008847ADB96078002816D16088ADF800005C
:104BB0006946A06861DF052805D030B1084AAE21FA
:104BC000FFF7CCFB04E0012502E0D4E902018847AD
:104BD000002ECED0002DE4D0F8BD0000402C0020E7
:104BE0007488070070B50E460446007918494FF4E2
:104BF000A27501EB4010017F2068A1B14FF48871CC
:104C000001F053FF4FF49071206801F04EFF4FF414
:104C10009271206801F049FF2946206801F045FFA4
:104C20000C49206809E04FF48E7101F02DFF2946F0
:104C3000206801F029FF08492068C0F804132068A3
:104C400001F0C4FA3146BDE8704001F0A3BA00009B
:104C5000B435002010030200800002002DE9F0436B
:104C6000264CA4F110092278D9F8048099F8035051
:104C7000404694F801C0D9F8086031E002EB4203E5
:104C80006168521C01EBC301A378D2B2934200D1F8
:104C900000220B78022B02D0032B21D11DE003460A
:104CA0004F68194603E0B94203D00B46C969B9B150
:104CB000F9E7A9B18B4205D1C06918B9104E012599
:104CC000B56000260F68C969D96149B10B683B44DA
:104CD0000B6005E00174C06900E000210028F9D1F3
:104CE0009445CBD1C9E9010689F80350404502D06B
:104CF0000120BDE8F0830020FBE70000202C00200D
:104D0000001001402DE9F0412A4F0446002607F12A
:104D10001005D7F804803EE002D02046E4691DE08B
:104D20002878696800EB4002401CC0B201EBC20168
:104D30002870AA78904200D12E700A784868012A1B
:104D40002BD1027C4ABB8A684260CA6882600A69C9
:104D5000C26049698161F97801B146604368BA6807
:104D6000DFF854C0991A21F07F41614502D2826870
:104D7000114406E0D11A826821F07F418A4202D9AB
:104D8000511A016000E006604660012186600174EE
:104D9000C66102F041FE002CBED1287869788842B5
:104DA000BED17968414502D00120BDE8F0810020E4
:104DB000FBE70000102C0020FFFF7F0010B5002053
:104DC00001F010FE18B10DA26B21FFF7C7FA1049D0
:104DD0000E48C1F8000700F07FF918B107A2702152
:104DE000FFF7BCFA4FF44050806800F0CFF809A1FB
:104DF000032001F0AFFD002010BD00002E2E5C2E20
:104E00002E5C6D61696E2E63000000000C000300D3
:104E1000600000503A494E464F3A41667465722030
:104E20006D61696E0D0A000010B586B0274900203B
:104E3000FFF72CFC17212548FEF745FB23490120ED
:104E4000FFF724FC04A90820FFF746FC04AA20A1D0
:104E5000132001F083FD1D4CA07863792279E1785D
:104E60008DE80F00637822781FA1132001F0A6FDC2
:104E7000617A207ACDE90001E379A27924A1132097
:104E800001F084FD617C207CCDE90001E37BA27B05
:104E900024A1132001F07AFD617B207BCDE9000184
:104EA000E37AA27A24A1132001F070FD617D207DB8
:104EB000CDE90001E37CA27C24A1132001F066FD72
:104EC00027A1132001F046FD06B010BDC42C002020
:104ED0000D0A3D3D3D202573204E455420434F4E45
:104EE00046203D3D3D0D0A004D41433A20253032DC
:104EF000583A253032583A253032583A253032580F
:104F00003A253032583A253032580D0A0000000058
:104F10005349503A2025642E25642E25642E25649D
:104F20000D0A00004741523A2025642E25642E25A3
:104F3000642E25640D0A00005355423A2025642E44
:104F400025642E25642E25640D0A0000444E533A34
:104F50002025642E25642E25642E25640D0A00006C
:104F60003D3D3D3D3D3D3D3D3D3D3D3D3D3D3D3D71
:104F70003D3D3D3D3D3D0D0A00000000C20800F0F2
:104F800007030120895C98400840704710B504462B
:104F9000024613A1032001F0E1FC00F053FE08B12A
:104FA0001FA112E029A1032001F0D4FC4FF0E02161
:104FB0004FF0FF30C1F8800122462CA1032001F000
:104FC000CDFC204613DF28B134A1BDE810400320FA
:104FD00001F0C0BC2046BDE81040FEF71BBA00003F
:104FE0003A494E464F3A52756E6E696E67206E7240
:104FF000665F626F6F746C6F616465725F61707021
:105000005F7374617274207769746820616464727C
:105010006573733A203078253038780D0A00000027
:105020003A494E464F3A4661696C65642072756E26
:105030006E696E67206E72665F6466755F6D627220
:105040005F696E69745F73640D0A00003A494E46E9
:105050004F3A44697361626C696E6720696E74656A
:105060007272757074730D0A000000003A494E4662
:105070004F3A53657474696E6720534420766563B4
:10508000746F72207461626C6520626173653A208E
:105090003078253038780D0A000000003A494E4635
:1050A0004F3A4661696C65642072756E6E696E6711
:1050B0002073645F736F66746465766963655F7699
:1050C0006563746F725F7461626C655F6261736562
:1050D0005F7365740D0A000010B507A1032001F08D
:1050E00039FC00F0CBFC040004D10BA1032001F03B
:1050F00031FC204610BD00003A494E464F3A496EF9
:10510000206E72665F626F6F746C6F616465725F50
:10511000696E69740D0A00003A494E464F3A41667D
:10512000746572206E72665F626F6F746C6F61641B
:1051300065725F696E69740D0A00000000F18040BD
:105140000068002800D00120704708B500F18040B9
:10515000002101600068009008BD000000283ED0DA
:105160001F49204A096800BF00BF00BF00BF00BF41
:1051700000BF00BF00BF91422FD000BF00BF00BFE3
:1051800000BF00BF00BF00BF00BF00BF00BF00BF27
:1051900000BF00BF00BF00BF00BF00BF00BF00BF17
:1051A00000BF00BF00BF00BF00BF00BF00BF00BF07
:1051B00000BF00BF00BF00BF00BF00BF00BF00BFF7
:1051C00000BF00BF00BF00BF00BF00BF00BF00BFE7
:1051D00000BF00BF00BF00BF00BF401EC3D170476B
:1051E000DC2C00200024F40000283ED01F49204A77
:1051F000096800BF00BF00BF00BF00BF00BF00BF05
:1052000000BF91422FD000BF00BF00BF00BF00BF52
:1052100000BF00BF00BF00BF00BF00BF00BF00BF96
:1052200000BF00BF00BF00BF00BF00BF00BF00BF86
:1052300000BF00BF00BF00BF00BF00BF00BF00BF76
:1052400000BF00BF00BF00BF00BF00BF00BF00BF66
:1052500000BF00BF00BF00BF00BF00BF00BF00BF56
:1052600000BF00BF00BF401EC3D17047DC2C002030
:105270000024F40000283ED01F49204A096800BFDE
:1052800000BF00BF00BF00BF00BF00BF00BF914212
:105290002FD000BF00BF00BF00BF00BF00BF00BFD6
:1052A00000BF00BF00BF00BF00BF00BF00BF00BF06
:1052B00000BF00BF00BF00BF00BF00BF00BF00BFF6
:1052C00000BF00BF00BF00BF00BF00BF00BF00BFE6
:1052D00000BF00BF00BF00BF00BF00BF00BF00BFD6
:1052E00000BF00BF00BF00BF00BF00BF00BF00BFC6
:1052F00000BF401EC3D17047DC2C00200024F40006
:105300002DE9F14FDFF8E8804FF4405A4FF4805414
:10531000D8F83000DAF80810D8F8246001EB000B58
:10532000351A34A1032001F015FBA1464C46A542D5
:1053300000D82C4600220121584600F079FA0028B6
:1053400022D1002322465846009900F00FFB002886
:105350001AD122465846009900F048FC070006D0B2
:105360005A462D490320009B01F0FFFA0BE0002272
:105370000121009800F05CFA070007D027A1032064
:10538000009A01F0EBFA3846BDE8F88FD8F83010F3
:1053900000202144C8F8301000F01CFE0098A344FF
:1053A000204400902D1BC1D100223146DAF80800BC
:1053B000FFF74EF9D8F8282005464446AA4208D1FE
:1053C00025A1032001F0C6FA0120A661C4E9075017
:1053D00004E003462849032001F0C7FA04482430BA
:1053E00000F0F8FBBDE8F84F002000F0F3BD00002E
:1053F000383400203A494E464F3A456E7465722063
:105400006E72665F6466755F6170705F636F6E7405
:10541000696E75650D0A0000348607003A494E46EC
:105420004F3A417070207570646174653A2046612E
:10543000696C7572652065726173696E6720706151
:10544000676520617420616464723A203078253089
:1054500038780D0A000000003A494E464F3A53652D
:105460007474696E67206170702061732076616C5E
:1054700069640D0A000000009487070010B511A1AF
:10548000032001F067FA184C206A012801D017A107
:105490000CE0E06978B14FF44050A16980680022C7
:1054A000FFF7D6F8E169814205D01AA1032001F087
:1054B00051FA002010BD1EA1032001F04BFA01207B
:1054C00010BD00003A494E464F3A456E7465722051
:1054D0006E72665F6466755F6170705F69735F7638
:1054E000616C69640D0A0000383400203A494E4668
:1054F0004F3A52657475726E2066616C73652069EF
:105500006E2076616C6964206170702063686563E9
:105510006B0D0A003A494E464F3A52657475726EE9
:105520002066616C736520696E204352430D0A004A
:105530003A494E464F3A52657475726E20747275D0
:10554000652E20417070207761732076616C6964EC
:105550000D0A0000F8B50E460A681849496B0D1887
:10556000541A4FF44050009482682B4614A1032033
:1055700001F003FA22462946214800F037FB88B1A2
:1055800023462A461F49032001F0EFF92146284609
:1055900000F03AFB040003D01BA1032001F0DAF96C
:1055A0002046F8BD21A1032001F0D4F9304600F0D7
:1055B00011FB002000F00EFD0446F1E73834002016
:1055C0003A494E464F3A566572696679696E672068
:1055D000424C3A20416464723A2030782530387861
:1055E0002C205372633A203078253038782C204CA8
:1055F000656E3A203078253038780D0A00000000BA
:1056000000300700788607003A494E464F3A526507
:10561000717565737420746F20636F707920424CCC
:10562000206661696C65640D0A0000003A494E46C7
:105630004F3A426F6F746C6F61646572207761736B
:105640002076657269666965640D0A0070B5054665
:105650004FF440500CA18468032001F07BF91249FB
:1056600001F118000A69012A08D04A6932B1896932
:105670000C3001F6FF716FF30B010C442A462146F2
:10568000BDE8704000F012B83A494E464F3A456EB8
:10569000746572206E72665F6466755F636F6E74A8
:1056A000696E75650D0A0000383400202DE9F0415F
:1056B0000546806800241646884601280DD001273B
:1056C000A52817D0AA282DD0AC2834D01EA103209D
:1056D00001F040F92046BDE8F08123A1032001F04C
:1056E00039F9264840690128F4D14046FFF708FE01
:1056F0000446EFE722A1032001F02CF94046294699
:1057000000F0FCFA040004D022A1032001F022F9E9
:1057100006E0284600F05EFA002000F05BFC04463C
:105720003760D7E725A1032001F014F92946404648
:10573000FFF710FFDCE726A1032001F00BF9294653
:10574000404600F08BFAEAE73A494E464F3A536931
:105750006E676C653A20496E76616C69642062619F
:105760006E6B0D0A000000003A494E464F3A5661F2
:105770006C6964204170700D0A000000383400200C
:105780003A494E464F3A56616C69642053440D0ABB
:10579000000000003A494E464F3A53442075706469
:1057A00061746520636F6E74696E756174696F6E84
:1057B000206661696C65640D0A0000003A494E4636
:1057C0004F3A56616C696420424C0D0A000000009B
:1057D0003A494E464F3A53696E676C653A205661B6
:1057E0006C6964205344202B20424C0D0A000000B9
:1057F00010B54FF0A040D0F81005000E10F0010FCA
:105800000FD00948816D012901D0002010BD002171
:105810008165084600F0DEFB18B1044A4821FEF716
:105820009DFD012010BD000038340020F0850700E8
:105830002DE9FF41054617460E460B464FF000087E
:105840002A4628A1032001F090F82F4C2068410738
:1058500023D5810707D52DA1032001F07BF80A206D
:1058600004B0BDE8F08140F001002060B2B23B46D8
:1058700029462F48FEF7D6FF5FEA000808D0024607
:105880002CA1032001F06AF8206820F0010002E05A
:10589000206840F00100206021E0280505D02CA1FF
:1058A000032001F057F80620DAE7C5F30F34284645
:1058B00001F0AAF805F58055761EF8D17FB12A4887
:1058C0000168D0E90220CDE90220CDE90017280BBC
:1058D000ADF80840ADF80A0000216846B8474046D8
:1058E000BEE700003A494E464F3A45726173696E11
:1058F000673A203078253038782C206E756D3A2044
:1059000025640D0A00000000002C00203A494E4694
:105910004F3A45726173653A204661696C757265EC
:105920002073696E6365206C6173740D0A0000005A
:10593000E02C00203A494E464F3A4572617365208B
:105940006661696C65643A2025640D0A00000000F8
:105950003A494E464F3A496E76616C6964206164FB
:1059600064726573730D0A00CC8407002DE9FF4152
:105970001746264A06461D4610680024430723D5CD
:10598000830707D522A1032000F0E4FF0A2004B01A
:10599000BDE8F08140F00100106090460A46BBB2BD
:1059A000314624480095FEF7AFFF040005D00246BB
:1059B00021A1032000F0D2FF20E0D8F8001041F030
:1059C0000101C8F8001019E031B12EB141EA06001A
:1059D000800703D00620DAE70320D8E787B13A46EC
:1059E000304601F029F84DB10020CDE90260CDE943
:1059F00000050146ADF80C706846A8472046C6E78A
:105A000014A1032000F0A6FF0420C0E7002C002012
:105A10003A494E464F3A466C6173683A204661698E
:105A20006C7572652073696E6365206C6173740DAB
:105A30000A000000E02C00203A494E464F3A466CDE
:105A40006173683A206661696C65642025640D0A9B
:105A5000000000003A494E464F3A466C6173683A7E
:105A600020496E76616C6C6964206C656E67746841
:105A700020284E564D43290D0A00000038B500205D
:105A800000901EA1032000F065FF00F057FA684661
:105A9000FFF7DCFD012420B120A1032000F05AFF14
:105AA0000094FFF7A5FE20B129A1032000F052FFCA
:105AB00000944FF440540099A06811B90068401C4C
:105AC0000BD12EA1032000F045FF02F06DF9314902
:105AD0000220FEF70DF8FEF77FFCFFF7CFFC38B190
:105AE0002DA10320A26800F039FFA068FFF74EFA4D
:105AF00030A1032000F02EFF002038BD3A494E4669
:105B00004F3A496E207265616C206E72665F646602
:105B1000755F696E69740D0A000000003A494E46CF
:105B20004F3A436F756C64206E6F7420636F6E74B0
:105B3000696E756520444655206F706572617469A1
:105B40006F6E3A203078253038780D0A000000005A
:105B50003A494E464F3A4170706C69636174696F9F
:105B60006E2073656E7420626F6F746C6F61646514
:105B70007220726571756573740A00003A494E4669
:105B80004F3A456E74657220426F6F74204D6F649A
:105B9000650D0A00F02C00203A494E464F3A4A75EE
:105BA0006D70696E6720746F3A20307825303878D0
:105BB0000D0A00003A494E464F3A4166746572201C
:105BC0007265616C206E72665F6466755F696E698E
:105BD000740D0A0000210160416081600248016388
:105BE0004163016141617047383400201FB5054BA6
:105BF00001AC92081B6A009384E80700684618DF2E
:105C000004B010BDDC8407001FB58908002201AB79
:105C1000009283E80700684618DF04B010BD00005A
:105C20001FB59208930502D0092004B010BD044BA3
:105C30001B6800930392CDE90110684618DFF4E772
:105C4000DC8407001FB5044B0FCB8DE80F006846BE
:105C500018DF04B010BD0000EC84070070B50D46DD
:105C600006460CA1032000F075FE2946304600F0E0
:105C700045F8040001D011A106E029463046FFF79F
:105C800069FC040004D015A1032000F063FE204647
:105C900070BD00003A494E464F3A456E7465722019
:105CA0006E72665F6466755F73645F626C5F636F7C
:105CB0006E74696E75650D0A000000003A494E4623
:105CC0004F3A53442B424C3A20534420636F70792F
:105CD000206661696C65640D0A0000003A494E4611
:105CE0004F3A53442B424C3A20424C20636F707918
:105CF000206661696C65640D0A0000002DE9FE4FA5
:105D0000DFF8FCB080465F46DBF83000DBF834108B
:105D100000F58054081A00F6FF70060B360340F6B3
:105D2000FF7000EB9600050B2D0336A1032000F059
:105D300011FE386B796B00EB080A41B1884206D13D
:105D40003CA1032000F006FE0020BDE8FE8F4FF4CA
:105D500040503FA18289032000F000FE04EB0509BA
:105D6000CDE900490AEB05039846524642A10320BB
:105D7000029500F015FE2A4651462046FFF750FFD7
:105D8000070004D0534622464B49009513E0CDE965
:105D900000494346524649490320029500F000FE5F
:105DA0002A4651462046FFF721FF070008D0444904
:105DB000534622460095032000F0DFFD3846C4E735
:105DC000CDE90049434652463EA10320029500F02A
:105DD000E7FD4C46C246B54201D9002600E0761BDD
:105DE00048A1032000F0B6FDDBF834100020891B29
:105DF000CBF8301000F0EEF8002EAFD1A5E7000090
:105E0000383400203A494E464F3A456E7465722048
:105E10006E72665F626F6F746C6F616465725F64EF
:105E200066755F73645F636F6E74696E75650D0A86
:105E3000000000003A494E464F3A534420616C72CC
:105E40006561647920636F706965640D0A00000004
:105E50003A494E464F3A5570646174696E672053F3
:105E6000442E204F6C64205344207665723A2030D3
:105E700078253034780D0A003A494E464F3A436F40
:105E80007079696E67205B3078253038782D3078EE
:105E9000253038785D20746F205B30782530387875
:105EA0002D3078253038785D3A204C656E3A2030B8
:105EB00078253038780D0A0050870700BC86070027
:105EC000088707003A494E464F3A56616C6964614B
:105ED000746564203078253038782D307825303856
:105EE0007820746F203078253038782D3078253040
:105EF00038783A2053697A653A20307825303878F6
:105F00000D0A00003A494E464F3A46696E69736879
:105F1000656420776974682074686520534420752F
:105F200070646174652E0D0A000000000022582183
:105F30000148FEF78DBB00003C34002070B516A16F
:105F4000032000F007FD1E4900204FF4AE750870D5
:105F50002A461C491C48FDF79DFA1B4C2068401C32
:105F600004D0FFF7E3FF2168814214D017490320D2
:105F700000F0F0FC29461448FDF7A5FA0120606006
:105F8000002000F027F8002805D0BDE87040104A36
:105F9000AB21FEF7E3B970BD3A494E464F3A7275F0
:105FA0006E6E696E67206E72665F6466755F73659C
:105FB0007474696E67735F696E69740D0A0000001E
:105FC000082C002000F0070038340020E487070088
:105FD0002888070070B50546244A25A1032000F053
:105FE000BDFC2D4C05E02DA1032000F0B3FCFEF715
:105FF000E7FB20780028F6D101202070C4F8045077
:1060000001F07AFF002201211848FFF711FC072850
:10601000F6D0002508B12FA11CE0FFF787FF384913
:106020005722086037A1032000F098FC34494FF450
:10603000AE72A1F5AE70FDF72DFA00BF01F05CFF66
:10604000384B572238490948FFF790FC0728F5D00C
:1060500030B136A1012000F07DFC2570032070BD19
:106060003DA1032000F076FC002070BD00F0070089
:106070003A494E464F3A45726173696E67206F6CBC
:10608000642073657474696E67732061743A20309C
:1060900078253038780D0A00082C00203A494E4601
:1060A0004F3A57616974696E6720666F72206F742A
:1060B00068657220666C617368206F7065726174C8
:1060C000696F6E20746F2066696E6973682E0D0AA1
:1060D000000000003A4552524F523A4572617369CE
:1060E0006E672066726F6D20666C617368206D65E7
:1060F0006D6F7279206661696C65642E0D0A00000F
:10610000383400203A494E464F3A57726974696EE6
:10611000672030782530387820776F7264730D0AE5
:1061200000000000CD470700DC3200203A45525203
:106130004F523A53746F72696E6720746F20666CA9
:10614000617368206D656D6F7279206661696C6539
:10615000642E0D0A000000003A494E464F3A57722D
:106160006974696E672073657474696E67732E2E27
:106170002E0D0A00002801D1FEF7C8B9704700F0C3
:106180001F02012191404009800000F1E020C0F889
:10619000801170474907090E002806DA00F00F0247
:1061A00002F1E02282F8141D03E000F1E02282F8FF
:1061B000001400F01F02012191404009800000F10D
:1061C000E020C0F88012C0F800117047000B40B208
:1061D00070470121B1EB507F01D1012070470020B1
:1061E00070470121B1EB507F01D1012070470020A1
:1061F000704700002DE9FC5F0C464179DFF80CA1E7
:1062000080460AEB4117387E10B10820BDE8FC9F9C
:106210003A60207B01254FF0A046012805D821785F
:1062200005FA01F0C6F80C0502E0207800F0F7F955
:106230002178A946890001F1A041C1F8005765788D
:10624000FF2D07D009FA05F0C6F80C05284600F026
:10625000C1F901E04FF0FF35A0784FF0000BFF28A7
:106260000AD0002206465B46CDF800B01146CDF8B4
:1062700004B000F079F901E04FF0FF36E078FF2834
:1062800004D000F0CCF9E07800F0A4F998F80520EB
:10629000E1780AEB42108176D8F800002178C0F846
:1062A0000815C0F80C55C0F81065A168C0F8241591
:1062B000227B617B01B10121012A04D0022A05D091
:1062C000032A08D105E041F0020104E041F0040195
:1062D00001E041F00601C0F854156179C0F8C0151D
:1062E000396811B14021C0F804130721C0F8001526
:1062F000386820B1217998F90400FFF74BFF584620
:1063000087F819B087F8189080E7000094350020CE
:106310001FB5069C00918DF8042002938DF80C4067
:106320000022694600F002F804B010BDF0B4134634
:106330000D464179134A02EB41114A7E12B1F0BC7D
:10634000112070470C6801221CB113F0140F00D10A
:106350004A7695E8D010083181E8D01011F8154F31
:1063600024F0030401F81D498C7EFF2C04D04FF06B
:10637000A046A240C6F80C2500682A46F0BC01F0F1
:1063800083BA0000943500202DE9F04105460079DC
:10639000164F904607EB40140E46E07E10B10820E1
:1063A000BDE8F081707F20772846FEF731F85FEA7C
:1063B000080060603169216003D0317F2846FEF714
:1063C00011FC287907EB4010007F0028286801D0D5
:1063D000082100E00421C0F800150020E0752076B7
:1063E000A0750121E176A076DAE70000B43500203F
:1063F0002DE9F047054600793F4E904606EB4014E4
:106400000F46207F18B10846FFF7EBFE30B1284653
:1064100000F074F820B11120BDE8F0871020FBE7F0
:1064200084F81680A7600027A78228794FF001081A
:1064300006EB40143E46207F0028286825D04FF404
:106440009079494600F031FB4FF4AC7A5146286808
:1064500000F02BFB2868A17DA268C0F84425C0F895
:1064600048152868C0F808806068F0B9494628686F
:1064700000F016FB80465146286800F011FB58EAF0
:106480000001F3D058BBA7750FE04FF48E7A514648
:1064900000F0FAFA2868C0F808802146286801F060
:1064A00055FB61684FF4807089B13046B4E75146BE
:1064B000286800F0E4FA10B9A08A4845F7D1A08A0C
:1064C000484505D02146286801F040FB00E08146A0
:1064D000A08AA17D8842EAD3A08A484501D10F262F
:1064E000D1E75146286800F0CAFA0028F9D0286898
:1064F000C0F80C80C7E70000B435002000790449DB
:1065000001EB4010807D002800D001207047000082
:10651000B435002070B5044600791149002601EB1E
:10652000401520682A7FC0F80065686888B1207926
:1065300001EB4010007F0028206801D0094901E0EC
:1065400008498C39C0F808132068FFF73FFEFFF7B1
:1065500016FE204600F0B4FAEE766E6070BD0000C4
:10656000B43500201003020070B541EA4201DDE9B4
:1065700004564FF0A04441EA830141EA052104EBAF
:10658000800041EA0641C0F8001770BD70B541EACD
:106590004201DDE904564FF0A04441EA830141EA9B
:1065A000052104EB800041EA0641C0F8001770BDE8
:1065B0001CB5002100910B4601220191FFF7E6FF77
:1065C0001CBD1CB500220B46009211460192FFF73C
:1065D000DDFF1CBD1CB5002100910B46012201917D
:1065E0001146FFF7C1FF1CBD1CB5002100910B46F1
:1065F000012201911146FFF7C9FF1CBD4FF0A042D7
:1066000002EB8000D0F8002722F44032C0F80027C7
:10661000D0F8002742EA0141C0F8001770474FF058
:10662000A04201218140C2F80815704718B5084BF7
:106630006C4601441B68009306E000BF54F820300C
:10664000D3F81035401C08C28142F7D818BD0000AD
:106650001C850700034908B5084400210160006853
:10666000009008BD0060004002494058012800D059
:10667000002070470060004000487047F166070046
:1066800030B5184C054689B0207828B1607885422D
:1066900002D1002009B030BD202213496846FCF722
:1066A000F9FE00208DF814001A20009019200190A6
:1066B0001C2003901B2002904FF0EB7006900948BD
:1066C000001DFFF727FF0DB1002200E0074A054833
:1066D0006946001DFFF758FE0028DBD1012020701D
:1066E0006570D6E7342C002020850700897B0700E1
:1066F0002DE9F04FC1B00D004FF0000140914D98D1
:106700004B991C46174601EB000B01D00A2000E014
:106710000020804600F0FAFF00287CD16E46BCB90C
:10672000409840AA3118284601F0F6F9002872D0A6
:106730003846FCF7D3FEC22800D9C220054640984F
:106740002A4630443946FCF7A5FE4098284440903C
:106750004FF0200A409901EB080231320DEB0105A0
:106760000DEB0206002002E005F801AB401C40459D
:10677000FAD300275C4508D305F801AB05F801AB57
:1067800005F801AB06F801AB2DE04B98844202D22C
:106790004A98005D02E0211A4C98405C2B468146E5
:1067A00002460121880022FA00F000F00F000928BB
:1067B00001D9373000E03030C1F1010C491E03F837
:1067C0000C00EFD29D1C05F801ABFCF75FFE0168E1
:1067D00011F8090010F03E0F01D0484600E02E20CD
:1067E00006F8010B641C7F1C102FC3D30D203070E2
:1067F0000A20707085F800A04099684641444331F2
:10680000409100F089FF30B100F080FF18B90020FE
:1068100040905C459ED341B02046BDE8F08F2DE905
:10682000F043C7B000251C46904689464E9F4595CB
:1068300000F06CFF00287AD1459805AE311845AAC2
:10684000484601F069F9002835D0072F27D2DFE844
:1068500007F004121B35424F5D004046FCF73EFE38
:10686000054645982918FF2919D830442A4641463B
:10687000FCF710FE13E045982368C0F580713044A2
:106880004246FDF7EBFA09E06068009045982368FE
:10689000C0F5807130444246FDF7E0FA05462946CE
:1068A00045A8FDF711FE459978B3B1F5807F3ED834
:1068B00005A800F031FF47B0BDE8F083D4E901013D
:1068C000CDE9000145982368C0F580713044424607
:1068D000FDF7C4FAE2E7201D07C88DE807004598D8
:1068E0002368C0F5807130444246FDF7B7FAD5E71A
:1068F000201D0FC88DE80F0045982368C0F58071F2
:1069000030444246FDF7AAFAC8E710E004F1080057
:1069100001AD0FC885E80F006068009045982368B6
:10692000C0F5807130444246FDF798FAB6E7002082
:10693000C1E70000004870471F68070038B50D46E2
:106940000093034B00215C6913462A46A04738BDDB
:10695000C837002000231A46FFF7F0BF08B501230F
:1069600000926A46FFF7EAFF08BD1CB5CDE9002397
:1069700002236A46FFF7E2FF1CBD3EB5069C8DE888
:106980001C0003236A46FFF7D9FF3EBD7FB5DDE952
:1069900008458DE83C0004236A46FFF7CFFF7FBD22
:1069A00070B586B00DF1280C9CE870008DE87C0075
:1069B00005236A46FFF7C2FF06B070BDF0B587B089
:1069C0000DF1300C9CE8F0008DE8FC0006236A46CF
:1069D000FFF7B4FF07B0F0BD014AC2E905017047F7
:1069E000C837002070B50120FFF74AFE040008D127
:1069F000FFF7A0FF0546FFF73FFE01462846FFF7D9
:106A0000EBFF204670BD0000094A022111600949D0
:106A10000B68002BFCD0064B1B1D18600868002873
:106A2000FCD00020106008680028FCD070470000EF
:106A300004E5014000E4014070B50C4D01232B60DA
:106A40000B4C2368002BFCD0002307E051F8236097
:106A500040F823602668002EFCD05B1C9342F5D3DF
:106A60000020286020680028FCD070BD04E50140AB
:106A700000E401404058002800D0012070474058F1
:106A8000002800D00120704708B50022425040582D
:106A9000009008BDD0F80403084000D001207047E2
:106AA0004058002800D00120704708B5002242500D
:106AB0004058009008BD00F040BF00F04ABF000001
:106AC00070B5034600791B4901EB40101968027F3D
:106AD0004FF0FF30002AD1F80C25D1F81465D1F819
:106AE0000855D1F8104504D0C1F80C05C1F81405BB
:106AF00003E0C1F81405C1F80C051968C1F80805D0
:106B0000C1F81005501C02D01046FFF751FD701C53
:106B100002D03046FFF74CFD601C02D02046FFF744
:106B200047FD681C04D02846BDE87040FFF740BD13
:106B300070BD0000B435002070B50C490446486EA5
:106B4000042811D00A6E0244042A00D3121F401CEC
:106B5000486602EB420001EBC00005461821FCF735
:106B6000B2FC0120256070BD002070BD60360020A1
:106B7000194830B4016E01EB410100EBC104406ED5
:106B8000002827D0207A012802D0022816D10FE051
:106B9000A18AE08A4FF48062091A914200DA8AB22F
:106BA000E168236901EB800103EB800029DF01E04C
:106BB000A08928DF112806D000280BD0204630BC41
:106BC000092100F0EABB0549087820F0020040F0F6
:106BD0000400087030BC704760360020302C002064
:106BE0000549087810F0060F04D140F00200087043
:106BF000FFF7BEBF70470000302C00202DE9F05F8A
:106C000004460E460088FFF758FF20806088FFF793
:106C100054FF83B26380228840A10420FFF7A5FEC1
:106C20004C4DDFF834A1DFF834B12869371F4FF439
:106C300040594FF40078012803D0032833D00528A9
:106C40002FD16088012823D103212961E88044499C
:106C5000D9F808000022091A01F6FF71090BFEF7A6
:106C6000E7FD28B1BDE8F05F3EA10320FFF772BE4B
:106C70006088321F401EC11700EB517121F00701DF
:106C8000411A0AEB41200BF10401FCF703FC42E03E
:106C9000608800F0A9FB474503D2FDF74BFF0220B7
:106CA0002870BDE8F09FE9886088491C8842EFD1D0
:106CB000E880401EC11700EB517121F00701411A15
:106CC0000AEB4120321F0BF10401FCF7E3FBA07833
:106CD000400701D047451ED242F21070FEF7CAFAB3
:106CE0006088D9F80810401EC21700EB5270C0101F
:106CF00001EB003000234FF480621749FEF736FEA7
:106D000018B121A10320FFF725FEFF224FF4805187
:106D10001148FCF7D1FB00F021FEB9E7544654506E
:106D20003A44454255473A3C3C20544654505F440F
:106D3000415441203A206F70636F646528256429AF
:106D40002C20626C6F636B5F6E756D282564290D56
:106D50000A000000942C002008380020F02C0020AD
:106D600000300700544654503A494E464F3A457257
:106D7000617365206F7065726174696F6E20666102
:106D8000696C65640D0A0000544654503A494E46F9
:106D90004F3A5752495445204552524F520D0A001E
:106DA00010B504460088FFF788FE20806088FFF752
:106DB00084FE82B2628008A104206368FFF7D5FDDB
:106DC00062880FA104206368FFF7CFFDFDF7B2FED4
:106DD00018490120087010BD544654503A444542A9
:106DE00055473A3C3C20544654505F4552524F520E
:106DF000203A20256420282573290D0A0000000070
:106E0000544654503A44454255473A5B726563765E
:106E10005F746674705F6572726F725D2045727226
:106E20006F7220436F6465203A2025642028257303
:106E3000290D0A00942C00202DE9F8432B4C07461D
:106E40001D46E0681646884682420CD028A10420E0
:106E5000FFF780FDE368324632A104200095FFF77A
:106E60008CFDBDE8F8833888FFF727FE86B22069DD
:106E7000022801D0012805D165802A4639A10420C5
:106E8000FFF76CFD072EECD2DFE806F004040405E2
:106E90000B291100E5E741463846BDE8F843FFF706
:106EA000ADBEBDE8F8433DA10420FFF753BD42A1AC
:106EB0000420FFF74FFD2069012807D00228D0D118
:106EC00004202061BDE8F84300F048BD05202061A2
:106ED00000F044FDBDE8F843002000F085BA4146CB
:106EE0003846BDE8F843FFF75BBF0000942C002054
:106EF000544654503A44454255473A5B726563766E
:106F00005F746674705F7061636B65745D20536558
:106F100072766572204950206661756C74730D0A33
:106F200000000000544654503A44454255473A66E2
:106F3000726F6D204950203A20253038782C20532C
:106F40006572766572204950203A20253038782CB9
:106F50002046726F6D20706F7274203A2025780D74
:106F60000A000000544654503A44454255473A5BA3
:106F7000726563765F746674705F7061636B65746D
:106F80005D205365742053657276657220506F7270
:106F900074203A2025640D0A000000005446545025
:106FA0003A44454255473A3C3C20544654505F4190
:106FB000434B203A200D0A00544654503A4445426F
:106FC00055473A3C3C20544654505F4F41434B2078
:106FD0003A200D0A000000002DE9FE4316468946BE
:106FE00004461D46C0B202AA0A21DDF82880FDF73A
:106FF00017FD4FF0FF37012801D017A10BE09DF8D6
:107000000800222825D1E0B201AA0921FDF708FDD8
:10701000012804D01FA10420FFF79CFC19E0BDF853
:107020000400B0B1B2B2E0B22B464946CDF80080C0
:1070300000F066F800B2ADF80400002801DA24A1DF
:10704000E9E72868FFF737FD2860BDF90400BDE8CF
:10705000FE833846FBE70000544654503A4445420C
:1070600055473A5B726563765F7564705F70616304
:107070006B65745D20676574736F636B6F707420EC
:10708000534F5F535441545553206572726F720DC4
:107090000A000000544654503A44454255473A5B72
:1070A000726563765F7564705F7061636B65745D54
:1070B00020676574736F636B6F707420534F5F52FA
:1070C000454356425546206572726F720D0A0000A4
:1070D000544654503A44454255473A5B726563768C
:1070E0005F7564705F7061636B65745D207265636A
:1070F0007666726F6D206572726F720D0A00000005
:107100002DE9FF4F002583B098461746044608280E
:1071100003D9681E07B0BDE8F08F60014FF0010A87
:107120000830FCF7CDFD834600F00F00022804D0A4
:10713000042802D06FF00400ECE72FB1DFF87C9157
:1071400039F8140018B11EE06FF00D00E2E74FF4BB
:10715000427000EB44160AFA04FA2046FDF714FCCC
:1071600005463046FCF7ACFD30B1554949881AEA6E
:10717000010F06D01DB106E06FF00300CAE7002042
:10718000C8E7002DE9D0DFF838A100210AF1060A8E
:107190004FF484700AF804100BF007014FF0800BD5
:1071A00000EB4416022920D004295AD02946204653
:1071B00000F0FAFE29F8145030464021FCF7E6FDB5
:1071C0003046FCF77DFD0028FAD139F81410491B30
:1071D0000904090C29F8141005D01AF8041041F01C
:1071E00001010AF80410284694E739F814004D46C6
:1071F00080BB08226946204600F0A6FE30464021AA
:10720000FCF7C4FD3046FCF75BFD0028FAD19DF881
:10721000001088F800109DF8011088F801109DF802
:10722000021088F802109DF8031088F803101099D6
:107230009DF8040008809DF8051001EB00201099CE
:1072400008809DF806009DF8071001EB002025F846
:1072500014002BE02CE02A462046049900F074FE2E
:10726000AAE739F814004D4610BB022269462046B1
:1072700000F06AFE30464021FCF788FD3046FCF7FE
:107280001FFD0028FAD19DF800009DF8011001EBC8
:10729000002080B240F2EA5125F81400884205D956
:1072A0002046FDF747F96FF47A7033E70AF804B027
:1072B00035F81450BD42CED93D46CCE7E437002026
:1072C000842C0020054A18B111B1C2E904017047AD
:1072D0000348106103485061704700005C2C002097
:1072E0007780070075800700074A10B513889C0552
:1072F000FDD518B111B1C2E9060110BD0348906176
:107300000348D06110BD00005C2C0020D58207002E
:10731000D982070070B5012670044FF0E0210025E6
:10732000C1F88001084C4010C4F84803C4F80803B1
:1073300066602F20FDF758FFA660044C2F20A56043
:10734000FDF752FFA57070BD00100140102C002009
:1073500070B50546C87D0C4600284FF48471284658
:107360000AD0FFF791FBD5F81805627EE1688854D2
:10737000607E401C607670BDFFF786FBD5F818056F
:1073800070BD1FB501238DF800308DF808100192F3
:10739000D0E90012684690471FBD1FB50022009239
:1073A000019202920392037A012B02D0022B13D195
:1073B00007E08DF8002002690292828AADF80C2065
:1073C0000AE001228DF800208289C389D21AADF823
:1073D00008208289ADF80A2042680192006882681C
:1073E000684690471FBD00007CB505460420FDF7A8
:1073F0009FFBADF804002846FDF79AFB094CADF859
:10740000060004226088E368009001A9A06800F0EB
:107410009BF800F0AFFA2A4603A10420FFF79EFA7A
:107420007CBD0000942C0020544654503A44454200
:1074300055473A3E3E20544654502041434B203A53
:1074400020426C6F636B204E756D626572282564F7
:10745000290D0A002DE9F047ADF5BE6D814698462D
:1074600015468A4601AC0120FDF762FBADF8040029
:10747000A41C49462046FCF738F84846FCF72EF88D
:107480000444641C51462046FCF72FF85046FCF794
:1074900025F80619002415E055F834103046FCF79D
:1074A00024F855F83400FCF719F8064405EBC40736
:1074B000761C30467968FCF718F87868FCF70EF807
:1074C0000644641C761C4445E6D3104C01A8321ACD
:1074D0004520E368009001A9A06800F035F801207C
:1074E00020614C462046FBF7F9FF421C2146084824
:1074F000FBF7D0FF00F03EFA53464A4605A10420B0
:10750000FFF733FA0DF5BE6DBDE8F087942C00202F
:10751000F4370020544654503A44454255473A3EC9
:107520003E205446545020525251203A2046696C15
:10753000654E616D65282573292C204D6F64652883
:107540002573290D0A000000FFB581B005461446D9
:107550000E460A9F0498FDF7E9FA0490A2B200973C
:10756000E8B204AB314600F021F8A04205D004A1F6
:107570000420FFF7EFF94FF0FF3005B0F0BD000039
:10758000544654503A44454255473A5B73656E64DD
:107590005F7564705F7061636B65745D2073656EA9
:1075A00064746F206572726F720D0A002DE9F047E6
:1075B0001E46DDF8208015468A460446082803D971
:1075C0004FF0FF30BDE8F08760014FF0010908304F
:1075D000FCF776FB00F00F00022804D0042802D04C
:1075E0006FF00400EEE7DDB13078717801EB002038
:1075F000B17801EB0020F17811EB002013D0B8F145
:10760000000F13D04FF4427000EB44100746FCF714
:1076100057FB42280DD022280BD06FF00600D1E78F
:107620006FF00D00CEE76FF00B00CBE76FF00A00B4
:10763000C8E740F6084000EB441004223146FCF74E
:10764000D5FB41F208004FEA182100EB4410FCF78B
:107650009DFB41F2081008F0FF0100EB4410FCF71D
:1076600095FB41F6087000EB4410FCF729FB4FF640
:10767000FF7101EA8020854200D90546DFF8888045
:1076800009FA04F62046FDF7A5F981463846FCF7CD
:1076900017FB38B1B8F80200064206D04D4504D9B0
:1076A00000208FE76FF003008CE74D45EAD82A46AB
:1076B0005146204600F099FC4FF4847000EB4410D2
:1076C00006462021FCF762FB4FF4027000EB4414E5
:1076D0003046FCF7F5FA0028FAD12046FCF7F0FA1C
:1076E00000F01F00C10605D520461021FCF74EFB17
:1076F000284667E70007F0D520460821FCF746FB3F
:107700006FF00C005EE70000842C00200148FEF7BB
:10771000F5BE0000382C002070B50D460A46014623
:1077200001240648FBF7B6FEEAB204490448FEF716
:107730005FFE00B10024204670BD0000C836002066
:10774000382C002003490246C86003A10420FFF73B
:1077500005B90000942C0020544654503A44454248
:1077600055473A5B7365745F7365727665725F69DE
:10777000705D20736574206970203D2025780D0AA6
:10778000000000002DE9F0411D4617460E46044654
:10779000082803D94FF0FF30BDE8F081012E06D054
:1077A000022E04D0042E02D06FF00400F4E715F08E
:1077B000060F6FF00500EFD185B1012E02D0022E29
:1077C0000CD103E015F0210FE6D007E0A90601D5A2
:1077D0002906E1D5E90601D52906DDD52046FCF7C5
:1077E000A9FE600105F0F0014FF0010831430830B7
:1077F000FCF7CCFA224E57B93788781C80B2A0F536
:107800007F413080F03902D14FF4404030804FF456
:107810008160390A00EB4410FCF7B8FA4FF4A1601C
:10782000F9B200EB4410FCF7B1FA4FF4847000EBAE
:10783000441007460121FCF7A9FA3846FCF740FA44
:107840000028FAD105F001007188A040084370803B
:10785000B18808FA04F08143B1800A49002021F878
:1078600014000749891D08554FF4427000EB441578
:107870002846FCF725FA0028FAD060B28CE7000011
:10788000842C0020E43700202DE9F84304461068DA
:107890001E4615460F464FF0000810B1FEF799FC42
:1078A000F8B1A86810B1FEF794FCD0B12879296826
:1078B000C4F84415C4F84805287BA968C4F83415F1
:1078C000C4F838054FF48C754046C4F81881D4F8D4
:1078D00018110091F2074FF0010107D0C4F85015BC
:1078E00006E087F819801020BDE8F883C4F8500539
:1078F000B20702D5C4F8401501E0C4F840053007CE
:1079000000D42161386848B146F38000401C4FF034
:1079100040000FD0C4F804030020E5E729462046C4
:10792000FFF7A8F80028F9D0B87EFF28F4D0FEF7BA
:1079300076FEF1E7C4F80803EEE70106C0F307227C
:1079400041EA0241C0F3074241EA022141EA1060E4
:1079500070470106090C41EA10207047044881690C
:10796000002903D000218161C161016270470000DC
:10797000942C002004488169002904D101218161EF
:107980000021C16101627047942C00202DE9F84F5D
:10799000204C00256846D4E901B6FCF723FF804659
:1079A000FDF75CF90746A946B8F1000F25D0002382
:1079B000009ACC46606819E007680146974202D9F0
:1079C000BA1A026014E0C1F800C0D1F80C80D21BD2
:1079D000C8693B448A46B8F1000F07D0F71827F072
:1079E0007F47C1E90178CAF81C500D460028E3D151
:1079F00060602846FDF786F904E02846FDF782F925
:107A000000B917B15846FCF7CDFD84F80390BDE8E6
:107A1000F88F0000102C00200D4B10B5596831B1C3
:107A200002680C68A24204D8A21A0A60C1615860B8
:107A300010BD0B4603E00B46C969121B21B10C684F
:107A40009442F8D3A41A0C600260C161D86110BDE1
:107A5000102C00202DE9F0411F4D6C68002C38D00F
:107A60001E4800270068A968B846401A20F07F46E3
:107A70002068B04218D82246361A0744E469107CC0
:107A800080B182F81080EB684BB1D2E905019847CC
:107A900040B113A240F24D11FCF760FC02E0D2E9C4
:107AA00005108847002CE3D129786878814206D1F7
:107AB000401CC0B26870022801D185F801800648D8
:107AC0006978183040F82170BDE8F0411420FBF7C8
:107AD00039BEBDE8F0810000102C002004150140E3
:107AE0002E2E5C2E2E5C2E2E5C2E2E5C2E2E5C639B
:107AF0006F6D706F6E656E74735C6C6962726172CB
:107B00006965735C74696D65725C6170705F7469DE
:107B10006D65722E6300000010B5144602004FF030
:107B200001000CD00846136806A24FF48071FCF7E0
:107B300095F901462046BDE81040FCF7C5BC002180
:107B4000216010BD5B253038645D000070B50C46C7
:107B500005464FF48E71FEF797FFA18AA068415C3D
:107B6000A08A401CA082C5F81C1570BD1FB500225C
:107B70008DF800208DF80810816801918275D0E998
:107B80000012684690471FBD0078012801D10149C5
:107B900088707047342C00202DE9FF470C460546BD
:107BA0004FF40071FEF776FF01274FF401780026AD
:107BB00018B34FF4927949462846FEF760FFE0B1CA
:107BC00049462846FEF760FFC5F80883A07E00B945
:107BD0006F6002208DF80000D5F88004C5F880049D
:107BE0000390E07D8DF80800E0680190E675267648
:107BF000D4E900126846904727E004212846FEF7A2
:107C000049FF10B34FF484712846FEF738FFE0B106
:107C100021462846FFF79CFBE07D617E884214D117
:107C2000207E38B1617EE268E0752069E0602676EA
:107C3000667607E0A07E00B96F60C5F80883E67538
:107C4000617EE2682046FFF79CFB4FF48E78414648
:107C50002846FEF714FF88B1A08AA17D884204D28D
:107C600021462846FFF772FF08E041462846FEF706
:107C70000BFFA17D11B12046FFF778FF4FF4A278EA
:107C800041462846FEF7FBFE002812D04146284612
:107C9000FEF7FAFEA07E00B12F60E07D002808D03C
:107CA000E675617EE26804B02046BDE8F047FFF764
:107CB00068BBBDE8FF872DE9FF410C464FF4927782
:107CC00005463946FEF7ECFE0026C0B13946284687
:107CD000FEF7EBFE02208DF80000D5F88004C5F811
:107CE00080040390D5F83C058DF80800E068019009
:107CF000E6752676D4E900126846904724E04FF4F2
:107D0000887739462846FEF7CBFEE8B13946284643
:107D1000FEF7CBFED5F83C05C1B2E07D884213D119
:107D2000207E60B1E268D5F8000220F02000C5F89E
:107D30000002207EE0752069E060267601E0E675AD
:107D4000E2682046FFF71DFB4FF4A277394628462C
:107D5000FEF7A6FE68B139462846FEF7A6FEE07D8E
:107D600038B1E675D5F83C05E268C1B22046FFF7A8
:107D700008FB4FF4907631462846FEF791FE002826
:107D80000FD031462846FEF790FEA07D002808D08F
:107D9000D5F84C0504B0C1B22046BDE8F041FFF76C
:107DA000E5BEBDE8FF81000010B532488AB000F1A1
:107DB00018010DF1140C1EC98CE81E00D0E9021246
:107DC0004069CDE9001203900A208DF800000820D8
:107DD0008DF8010009208DF80200FF208DF80300C6
:107DE0004FF08041002002918DF8050022490320C8
:107DF0008DF80C00C1F80007002269461D48FEF707
:107E0000F9F91E491E48FFF75DFA1E491E48FFF7A3
:107E10006BFA1EA11320FEF79DFD05A90120FCF7BA
:107E20005BFC401C0AD01EA11320FEF793FD04A9A1
:107E30000F20FCF751FC401C05D008E020A11320C6
:107E4000FEF788FDFEE725A11320FEF783FD9DF8D0
:107E500010000028EBD001208DF824004FF47A7038
:107E6000ADF8260009A800F021FAFCF7DDFF0AB002
:107E700010BD0000408507002C00005079800700ED
:107E80000582070051830700C1810700573535304F
:107E900030206D656D6F727920696E69740D0A000E
:107EA000573535303020504859204C696E6B20537F
:107EB000746174757320436865636B0D0A0000007C
:107EC00057495A4348495020496E697469616C6941
:107ED0007A6564206661696C2E0D0A00556E6B6EC2
:107EE0006F776E20504859204C696E6B2073746117
:107EF0007574732E0D0A000010B505E005A103206E
:107F0000FEF728FDFCF75CFCFCF7F4FC0028F5D13B
:107F100010BD00003A494E464F3A57616974696E88
:107F20006720666F7220617661696C61626C6520A2
:107F30007370616365206F6E20666C617368207179
:107F4000756575652E0D0A002DE9F0475FEA020898
:107F50008946064626D042F6081000EB461528460C
:107F6000FBF7AEFE074642F6080000EB461420463B
:107F7000FBF7A6FE07EB002087B2380200EB4610A5
:107F8000424649461830FBF7C7FE07EB080086B2A9
:107F9000310A2046FBF7FAFEF1B22846BDE8F04769
:107FA000FBF7F4BEBDE8F0872DE9F041044642F648
:107FB000081000EB44150E462846FBF781FE0746E5
:107FC00042F6080000EB44142046FBF779FE07EB6D
:107FD0000020304486B2310A2046FBF7D7FEF1B2CA
:107FE0002846BDE8F041FBF7D1BE2DE9F0475FEA36
:107FF00002088946064626D042F2085000EB461594
:108000002846FBF75DFE074642F2084000EB4614A7
:108010002046FBF755FE07EB002087B2380200EB45
:108020004610424649461030FBF7E0FE07EB0800D9
:1080300086B2310A2046FBF7A9FEF1B22846BDE818
:10804000F047FBF7A3BEBDE8F087007870470170EA
:10805000704710B5040A00F0F0014FF4A850FBF788
:1080600095FE2146BDE810404FF4B850FBF78EBE98
:1080700070477047704770474FF0A0414FF4006061
:10808000C1F80805704710B54FF4A850FBF718FE6B
:1080900000F0F0044FF4B850FBF712FE04EB0020A0
:1080A00080B210BD10B54FF4B050FBF709FE044686
:1080B0004FF4C050FBF704FE04EB002080B210BD6B
:1080C00010B50446014606224FF41060FBF724FE6B
:1080D000042204F10E019001FBF71EFE042204F1BC
:1080E0000A014FF4A060FBF717FE0422A11D4FF414
:1080F0007060FBF711FE07480178A1744178E174C4
:1081000081782175C07860750248401E0078A0759E
:1081100010BD0000552C00200020FBF7D1BD70B52C
:1081200004464FF4D850FBF7CBFD20704FF4D050ED
:10813000FBF7C6FD05464FF4C850FBF7C1FD05EB44
:108140000020608070BD2DE9F0410D4606460024F8
:1081500000F0C3F84FF0FF38AEB10022B05C521C03
:10816000204452B244B2082AF8DB102C17DC002459
:1081700041F60877315D07EB4410FBF707FE641CFE
:1081800064B2082CF6DBCDB1002108462A5C401C05
:10819000114440B249B20828F8DB102902DD4046FC
:1081A000BDE8F081002441F60866295D06EB441025
:1081B000FBF7ECFD641C64B2082CF6DB0020EFE753
:1081C0001CB500208DF8040001200022009001ABB6
:1081D00011460548FEF79CF818B104A10120FEF7EE
:1081E000B9FB9DF804001CBD408507004554483A82
:1081F0004552524F523A535049206661696C65644A
:108200000D0A00004FF0A0414FF40060C1F80C05CA
:10821000704710B5C1B2040A4FF4B050FBF7B6FD79
:108220002146BDE810404FF4C050FBF7AFBD000041
:1082300010B50446014606224FF41060FBF7D6FD48
:10824000042204F10E019001FBF7D0FD042204F199
:108250000A014FF4A060FBF7C9FD0422A11D4FF4F1
:108260007060FBF7C3FD0748A17C0170E17C4170A1
:10827000217D8170617DC1700249A07D491E087019
:1082800010BD0000552C002010B5044630F03A0017
:1082900002D04FF0FF3010BD0020FBF711FD40EA87
:1082A00004010020FBF772FD002010BD10B504464C
:1082B00001784FF4D850FBF769FD6088010A4FF44C
:1082C000C850FBF763FDA178BDE810404FF4D050D3
:1082D000FBF75CBD002070477047F0B585B04FF4E8
:1082E0001064062269462046FBF716FD042295011C
:1082F00002A92846FBF710FD4FF4A066042203A94B
:108300003046FBF709FD4FF47067042204A9384694
:10831000FBF702FD80210020FBF738FD0020FBF772
:10832000CFFC062269462046FBF760FD042202A925
:108330002846FBF75BFD042203A93046FBF756FDF8
:10834000042204A93846FBF751FD05B0F0BD00003A
:1083500001B582B0002003460090012202A9054821
:10836000FDF7D6FF002803D003A10120FEF7F2FAA3
:108370000EBD0000408507004554483A4552524F13
:10838000523A535049206661696C65640D0A0000D9
:1083900010B504464FF43850FBF792FCC0F380113F
:1083A000217000F0380001220021202811D0382847
:1083B0000FD0617010280ED018280CD020280AD0B9
:1083C000A170082809D0182807D0202805D0E1700E
:1083D00010BD6270EEE7A270F3E7E27010BD10B559
:1083E0004FF43850FBF76CFCC00700D0012010BDE3
:1083F00010B500244FF43850FBF762FC10F0300F3A
:1084000000D00124204610BD10B54FF4385420464A
:10841000FBF756FC20F080012046FBF7B7FC204616
:10842000FBF74EFC40F080012046BDE81040FBF712
:10843000ADBC10B502780021012A00D1402142785C
:10844000012A06D0C2788078012A05D001280BD0F5
:108450000CE041F0380109E0012802D041F00801A8
:1084600004E041F0180101E041F010014FF43850F0
:10847000FBF78CFCBDE81040FFF7C6BF70B50446A3
:108480004FF438563046FBF71BFC41064FF0FF35E2
:108490001AD520F03800012C10D040F038013046B9
:1084A000FBF774FCFFF7B0FF3046FBF709FC012C2B
:1084B00007D000F0380038B1002070BD40F0300126
:1084C000EDE700F03000F6E7284670BD010000003F
:1084D000000000000000000000000000010000009B
:1084E000000000000000000000000000020000008A
:1084F0000000000000000000000000000300000079
:108500000000000000000000000000000400000067
:10851000000000000000000000000000000000500B
:10852000FFFFFFFFFFFFFFFFFFFFFFFFFFFFFFFF5B
:1085300000000000000000000000D601070100005C
:108540000030004003000100FFFFFFFF07FF0000B5
:1085500000000040000000000202020202020202CB
:10856000020202020202020200404040404040403B
:1085700040404141414141404040404040404040F6
:10858000404040404040404040050202020202029A
:1085900002020202020202020220202020202020E9
:1085A00020202002020202020202909090909090FD
:1085B00010101010101010101010101010101010BB
:1085C000101010100202020202028888888888882F
:1085D000080808080808080808080808080808081B
:1085E000080808080202020240000000698507002E
:1085F0002E2E5C2E2E5C2E2E5C2E2E5C2E2E5C6380
:108600006F6D706F6E656E74735C6C6962726172AF
:108610006965735C626F6F746C6F616465725C64D2
:1086200066755C6E72665F6466755F746674702EE4
:10863000630000003A494E464F3A496E76616C69D4
:1086400064206461746120647572696E6720636F71
:108650006D706172653A207461726765743A20309A
:1086600078253038782C207372633A2030782530A2
:1086700038780D0A000000003A494E464F3A426FE2
:108680006F746C6F61646572206E6F7420766572B2
:1086900069666965642C20636F7079696E673A203A
:1086A0005372633A203078253038782C204C656E30
:1086B0003A203078253038780D0A00003A494E4685
:1086C0004F3A46696E697368656420636F707969B3
:1086D0006E67205B3078253038782D30782530383B
:1086E000785D20746F205B3078253038782D3078B5
:1086F000253038785D3A204C656E3A203078253048
:1087000038780D0A000000003A494E464F3A46615B
:10871000696C656420746F20436F6D7061726520B1
:1087200053443A207461726765743A20307825307A
:1087300038782C207372633A203078253038782CC2
:10874000206C656E3A203078253038780D0A0000AC
:108750003A494E464F3A4661696C656420746F2011
:10876000636F70792053443A207461726765743A7C
:10877000203078253038782C207372633A20307896
:10878000253038782C206C656E3A203078253038CA
:10879000780D0A003A494E464F3A43524320636FE0
:1087A0006D7075746174696F6E206661696C656463
:1087B00020666F7220636F70696564206170703A23
:1087C00020737263206372633A20307825303878E2
:1087D0002C20726573206372633A203078303878C9
:1087E0000D0A00003A494E464F3A2121212121210C
:1087F00021212121212121212120526573657474B9
:10880000696E6720626F6F746C6F6164657220734C
:10881000657474696E677320212121212121212132
:108820002121210D0A0000002E2E5C2E2E5C2E2E02
:108830005C2E2E5C2E2E5C636F6D706F6E656E7499
:10884000735C6C69627261726965735C626F6F748C
:108850006C6F616465725C6466755C6E72665F64A1
:1088600066755F746674705F73657474696E677340
:108870002E6300002E2E5C2E2E5C2E2E5C2E2E5C87
:108880002E2E5C636F6D706F6E656E74735C736FAC
:1088900066746465766963655C636F6D6D6F6E5C4D
:1088A000736F66746465766963655F68616E646C36
:1088B00065725C736F66746465766963655F686131
:1088C0006E646C65722E63003500000074696D651E
:1088D0006F757400F4880700002C0020F000000081
:1088E0008C3E0700E4890700F02C0020183B0000B4
:1088F0009C3E070000000000C0A8033200000000FA
:108900000000000000000000000000000000000067
:108910000000000000000000000000000000000057
:1089200000000000000000000000000000200040E7
:108930000000000000000000000000000000000037
:108940000000000000000000000000000000000027
:108950000102573535303000718007007380070001
:1089600077800700758007004B8007004F80070065
:10897000000000000000000000C000000000000037
:1089800000000000000000000000000000000000E7
:10899000FFFFFFFF000000000000000005000000D6
:1089A00000000000000000000000000000000000C7
:1089B000CC880700C88807000008DC00ABFEC0A810
:1089C00003C8FFFFFF00C0A8030108080808010052
:1089D0000090D00300100000003008009948070004
:0489E0000000000093
:020000041000EA
:0410140000300700A1
:020000041000EA
:0410180000E00700ED
:020000041000EA
:04120C00FEFFFFFFE3
:0400000500073401BB
:00000001FF
