:020000040001F9
:10F00000E051002015F201001DF201001FF2010085
:10F0100021F2010023F2010025F2010000000000AE
:10F0200000000000000000000000000027F20100C6
:10F0300029F20100000000002BF201002DF2010076
:10F0400049F501002FF201000DFA01002FF2010035
:10F050002FF201002FF2010045F301002FF2010011
:10F060002FF201002FF201002FF201002FF2010018
:10F070002FF201002FF201002FF201002FF2010008
:10F080002FF20100A1F501002FF201002FF2010083
:10F09000E9F601002FF20100EDF601002FF2010068
:10F0A0002FF201002FF201002FF201002FF20100D8
:10F0B0002FF201002FF2010000000000000000000C
:10F0C0002FF201002FF201002FF201002FF20100B8
:10F0D0002FF201002FF201002FF2010000000000CA
:10F0E0000000000000000000000000000000000020
:10F0F0000000000000000000000000000000000010
:10F1000000000000000000000000000000000000FF
:10F1100000000000000000000000000000000000EF
:10F1200000000000000000000000000000000000DF
:10F1300000000000000000000000000000000000CF
:10F1400000000000000000000000000000000000BF
:10F1500000000000000000000000000000000000AF
:10F16000000000000000000000000000000000009F
:10F17000000000000000000000000000000000008F
:10F18000000000000000000000000000000000007F
:10F19000000000000000000000000000000000006F
:10F1A000000000000000000000000000000000005F
:10F1B000000000000000000000000000000000004F
:10F1C000000000000000000000000000000000003F
:10F1D000000000000000000000000000000000002F
:10F1E000000000000000000000000000000000001F
:10F1F000000000000000000000000000000000000F
:10F20000DFF80CD000F08CF800480047D51502005C
:10F21000E05100200648804706480047FEE7FEE729
:10F22000FEE7FEE7FEE7FEE7FEE7FEE7FEE7FEE7B6
:10F2300011F7010001F201002DE9F05F0546002001
:10F2400092469B4688460646814640241BE0284657
:10F2500041464746224600F053F853465A46C01AE4
:10F26000914110D311461846224600F03AF82D1A63
:10F2700067EB01084F4622460120002100F031F8DB
:10F2800017EB00094E41201EA4F10104DFDC4846C3
:10F2900031462A464346BDE8F09F40EA01039B07FA
:10F2A00003D009E008C9121F08C0042AFAD203E0FB
:10F2B00011F8013B00F8013B521EF9D27047D2B25F
:10F2C00001E000F8012B491EFBD270470022F6E74F
:10F2D00010B513460A4604461946FFF7F0FF2046CC
:10F2E00010BD202A04DB203A00FA02F1002070470A
:10F2F0009140C2F1200320FA03F319439040704774
:10F30000202A04DB203A21FA02F00021704721FA7A
:10F3100002F3D040C2F120029140084319467047E1
:10F32000064C074D06E0E06840F0010394E8070052
:10F3300098471034AC42F6D3FFF766FFD43602008C
:10F34000F43602002DE9F04700268CB0DFF860911A
:10F35000B0464FF48075012437460696284602F0E1
:10F360007DFD38B1D9F80403204203D0284602F0CD
:10F370006BFD26432D1D64007F1CADB2082FEDD31D
:10F380004FF4BE74204602F069FD48B1204602F0F9
:10F390005BFD46F0004606AA0121002002F040FD78
:10F3A000444D16F0FF0F15D00127002437420DD031
:10F3B00009EB8401D1F81005D1F81015C0F3042031
:10F3C00055F82420C1F3014102B190477F00641C2D
:10F3D000082CEBD3002E67DA4FF0FF30CDE9088020
:10F3E00000263446281910F8507F90F9000027F0C5
:10F3F000C008401C44D009A9404602F017FA58B38F
:10F400004FEA9719404601F0BDFB55F820701FB137
:10F41000B9F1030F03D00FE0B9F1030F30D108A801
:10F420004FEAD80208F00703815C4FF0010C0CFA98
:10F4300003FC41EA0C0181544FF0A04101EB88002C
:10F44000D0F8000706A9C0F3014A404602F0EEF9E1
:10F4500018B1BAF1020F03D012E0BAF1030F0FD1C5
:10F46000B9F1030F08D1BAF1020F1BD002214046B7
:10F4700002F0C5FC761CF6B217B149464046B847C3
:10F48000641C042CAED3002E0ED06A46012100204D
:10F4900002F0C6FC06990098884205D006900898AC
:10F4A00009909DE70321E2E70CB0BDE8F08700007A
:10F4B00000600040C030002000F01F020121914098
:10F4C0004009800000F1E020C0F88012704700F091
:10F4D0001F02012191404009800000F1E020C0F8A6
:10F4E0008011704700F01F02012191404009800007
:10F4F00000F1E020C0F80011704700F01F02012168
:10F5000091404009800000F1E020C0F800117047F0
:10F5100000F01F02012191404009800000F1E0202D
:10F52000C0F8001270474907090E002806DA00F0FB
:10F530000F0000F1E02080F8141D704700F1E0207A
:10F5400080F80014704700002DE9F0414FF48077F7
:10F55000384602F073F90124104EA50748B1384629
:10F5600002F073F90120C5F808037470002001F05F
:10F5700033FB4FF48277384602F060F900280BD055
:10F58000384602F062F90220C5F80803B470BDE8FD
:10F59000F041012001F020BBBDE8F081AC3000203B
:10F5A00007480021C0F84011C0F84411C0F84811C4
:10F5B000C0F84C11C0F80011C0F8041103F038BBBA
:10F5C0000010014030B5144C207014480D780570BF
:10F5D0004D7845708D788570C978C1706270002152
:10F5E000636041710422027103228271C171017250
:10F5F0004172C16001610175C0E90611C0E90811DD
:10F60000C0E90A1101210022C0E90C12034923209C
:10F6100081F8380030BD0000B02000207831002093
:10F62000FEB52F4C00260546019620784FF4427116
:10F63000282701EB401000F0F7F9E8B322284DD15C
:10F64000207801F001FD020021D0382A00D93822AB
:10F6500002A8009001AB2078616802F065FE39468F
:10F66000606801F03DFD1E480830018829808178DE
:10F67000A970C178E970017929714179697180793E
:10F68000A8716680207801F0BBFA0120FEBD608879
:10F690004FF6FF71884216D27B2130B140F6FF72DF
:10F6A000B0FBF2F302FB1300C0B90E4B0091302205
:10F6B00003F13801207800E00AE002F0F7FF6088EB
:10F6C000401C60800AE06680207801F099FA05E02D
:10F6D00000237B220221207803F098F80020FEBD51
:10F6E000B02000207831002003F03EBA074810B562
:10F6F000406830B18047002807D0BDE8104000F0D6
:10F70000F1BCBDE8104001F0A7BD10BD44200020B1
:10F71000F0B5AE480023021D01780125101D4FF001
:10F72000805406290BD11678360708D10678C6F31F
:10F730000316032E06D0042E04D0052E02D006296F
:10F7400007D00EE0B4F82463A14FC6F304263E6050
:10F7500002E01678360704D10678C6F30316032EA6
:10F7600002D0062904D00FE09B4F9A4E7E670EE030
:10F770001678360708D10678C6F30316032E06D08E
:10F78000042E04D0052E02D0062907D00EE0D4F8AE
:10F790004462924FC6F342363E6002E01678360766
:10F7A00004D10678C6F30316032E02D0062906D02C
:10F7B00011E08B4E376827F0807737600EE01678BF
:10F7C000360708D10678C6F30316032E06D0042E9A
:10F7D00004D0052E02D006290AD011E04FF0804651
:10F7E000C6F80C31C6F810317C4E361F336002E08B
:10F7F0001678360704D10678C6F30316032E02D016
:10F80000062905D00CE0754F032664373E600AE0F8
:10F810001678360704D10678C6F30316032E02D0F5
:10F8200006290DD014E06F4F05263E606D4E7836E8
:10F8300035606C4E083633603F263F1D3E6002E067
:10F840001678360704D10678C6F30316052E02D0C3
:10F85000062957D062E0644E3668644F3E60624EBF
:10F86000361D36683F1D3E605F4E083636683F1DC8
:10F870003E605D4E0C3636683F1D3E605A4E103677
:10F8800036683F1D3E60584E143636683F1D3E6058
:10F89000554E18363668554F20373E60524E1C364E
:10F8A00036683F1D3E60504E203636683F1D3E6034
:10F8B0004D4E243636683F1D3E604B4E2836366826
:10F8C0003F1D3E60484E2C3636683F1D3E60464E1A
:10F8D00030363668454F40373E60434E34363668E2
:10F8E0003F1D3E60404E383636683F1D3E603E4EFE
:10F8F0003C3636683F1D3E603B4E403636683F1D05
:10F900003E6002E01678360708D10678C6F3031683
:10F91000032E06D0042E04D0052E02D0062907D0CF
:10F9200019E0D4F85812324A01F04F01116002E098
:10F93000117809070FD10078C0F30310032803D012
:10F94000042801D0052806D12A480168C90702D039
:10F950006FF00101016022487438016841F47001C0
:10F960000160BFF34F8FBFF36F8F4FF01021D1F8BD
:10F970000002002803DBD1F80402002822DA1E4A24
:10F9800015601E480468002CFCD01524C1F8004204
:10F990000568002DFCD0C1F8044201680029FCD0A4
:10F9A000136001680029FCD0BFF34F8F0C48F0387A
:10F9B0000168134A01F4E06111430160BFF34F8F06
:10F9C00000BFFDE710490F480860F0BDE00F00F0F0
:10F9D000403501400DF0ADBA00C007403C05004085
:10F9E000FCED00E0105600400404001020C500406B
:10F9F000E40E00400004004004E5014000E4014042
:10FA00000400FA050090D003C02000200448017FC4
:10FA100004480029024901D003F075BA03F0E4B9A3
:10FA20001831002000200040F8B5144C0546A068AD
:10FA3000804720698047216AC5F30740C5F3072640
:10FA400099B1626A8AB18DF800008DF801608DF875
:10FA50000250032168469047A069804705466069C7
:10FA60008047E06880472846F8BDE1698847E1693A
:10FA700030468847E169E8B28847EDE788200020F2
:10FA80002DE9F8431A4C05461746A068884680477A
:10FA900020698047216AC5F30740C5F30726A1B155
:10FAA000626A92B18DF800008DF801608DF8025005
:10FAB000032168469047226A39464046904760696C
:10FAC0008047E0688047BDE8F883E1698847E169DD
:10FAD00030468847E169E8B28847002505E0A0691B
:10FAE000804708F805006D1CADB2BD42F7D3E6E7CC
:10FAF00088200020F8B5164C05460E46A0688047C1
:10FB000020698047626A45F004058AB1280C8DF8A7
:10FB10000000280A8DF801008DF802508DF803606E
:10FB200004216846904760698047E0688047F8BDD7
:10FB3000E169C5F307408847E169C5F307208847B5
:10FB4000E169E8B28847E16930468847EBE70000A1
:10FB500088200020F8B51A4C05461646A0680F46C6
:10FB6000804720698047626A45F004059AB1280CF5
:10FB70008DF80000280A8DF801008DF8025003214D
:10FB800068469047626A31463846904760698047C8
:10FB9000E0688047F8BDE169C5F307408847E1693F
:10FBA000C5F307208847E169E8B28847002504E0EB
:10FBB000E169785D88476D1CADB2B542F8D3E5E7E1
:10FBC000882000200FB4054B10B503A9044A029801
:10FBD00000F02AF810BC5DF814FB00003B10020096
:10FBE0004020002002E008C8121F08C1002AFAD1F4
:10FBF00070477047002001E001C1121F002AFBD1AD
:10FC0000704700000121202803DA814005480140A7
:10FC100003E0402802DA2038814009B10120704712
:10FC200000207047FC06FFBC2DE9FF4F8DB00F464A
:10FC30000546002606E025280BD0DDE90F12904787
:10FC40006D1C761C28780028F5D111B03046BDE82F
:10FC5000F08F0024A246A1460122EC4900E00443B3
:10FC600015F8013F203B02FA03F00842F7D128784B
:10FC70002A2810D06FF02F022878A0F1300109292E
:10FC800014D80AEB8A0102EB410144F0020400EBB4
:10FC9000010A6D1CF0E701CF5FEA000A03D544F4C6
:10FCA0000054CAF1000A44F002046D1C28782E2882
:10FCB00017D115F8010F44F004042A280ED06FF074
:10FCC0002F022878A0F1300109290AD809EB89010F
:10FCD00002EB410100EB01096D1CF2E757F8049BB0
:10FCE0006D1C28786C280FD006DC4C2817D06828AB
:10FCF0000DD06A2814D104E0742810D07A280FD1CE
:10FD00000DE044F400140AE044F4801401E044F4EB
:10FD100040146978814202D104F580146D1C6D1C79
:10FD20002A786E2A1FD00CDC632A31D004DC002A2A
:10FD30008BD0582A11D1A3E0642A68D0692A0CD14B
:10FD400065E0732A2ED004DC6F2A73D0702A04D1A8
:10FD50009BE0752A6FD0782A6ED01046DDE90F122D
:10FD60009047761C50E1C4F30250022806D00328C5
:10FD700009D0042801CF09D0066045E101CFF11771
:10FD8000C0E9006140E101CF06803DE106703BE142
:10FD900017F8040B8DF8000000208DF80100EB46E9
:10FDA000012003E057F804BB4FF0FF3061074FF02C
:10FDB000000102D40DE008F10101884649450FDA3F
:10FDC0008045F8DB1BF808100029F4D108E008F1A1
:10FDD000010188468142FADB1BF808100029F6D1A0
:10FDE000DDE90F23AAEB08008146214600F036F931
:10FDF000304400EB080604E0DDE90F121BF8010BAC
:10FE00009047B8F10108F7D221464846F7E00A21A9
:10FE1000C4F302534FF0000B0891022B04D001CF22
:10FE2000C117032B09D00AE0FF1D27F00707F7E8E9
:10FE3000020108E032E01FE020E000B2C117042B0D
:10FE400001D140B2C117031E71F1000307DA4FF070
:10FE5000000CD0EB0C006CEB01012D2302E023051C
:10FE600004D52B238DF82430012303E0E30701D0D0
:10FE70002023F7E7984658E00A2110E010210EE011
:10FE800010204FF0000B08900CE010214FF0000BF9
:10FE900044F004044FF00809089103E008214FF0F2
:10FEA000000B0891C4F30253022B04D001CF0021B0
:10FEB000032B06D006E0FF1D27F00707F7E8020135
:10FEC00003E080B2042B00D1C0B24FF0000823073A
:10FED0002BD5702A07D0DDF820C08CF0100C5CEA1E
:10FEE0000B0C05D00EE040238DF82430012308E0F0
:10FEF00050EA010306D030238DF824308DF82520F8
:10FF000002239846DDF820C08CF0080C5CEA0B0C4C
:10FF10000BD150EA010301D1630706D530238DF8D8
:10FF200024304FF00108A9F10109582A04D038A261
:10FF30000B9208AA0A920BE03AA2F9E75B46089AEC
:10FF4000FFF77AF90B9B9B5C0A9A521E0A92137078
:10FF500050EA0102F2D10A98ADEB000000F1200B4B
:10FF6000600702D524F4803401E04FF00109D9453F
:10FF700002DDA9EB0B0000E0002000EB0B01414487
:10FF80000890AAEB010AE00306D4DDE90F2321461D
:10FF9000504600F063F806444FF0000908E009A954
:10FFA00011F80900DDE90F12904709F10109761CEB
:10FFB000C145F4DBE0030CD5DDE90F2321465046B3
:10FFC00000F04CF8064404E0DDE90F1230209047C1
:10FFD000761C0899481E08900029F5DC08E00A986C
:10FFE0000A990078491C0A91DDE90F129047761CA6
:10FFF000BBF10001ABF1010BF1DC21465046DDE91C
:020000040002F8
:100000000F2300F019F806446D1C1BE609280100B7
:10001000303132333435363738396162636465667E
:100020000000000030313233343536373839414240
:1000300043444546000000002DE9F04104460025F8
:100040001E461746880404D405E039462020B047F0
:100050006D1C641EF9D52846BDE8F0812DE9F041FC
:10006000044600251E469046C80301D5302700E00F
:100070002027880404D505E041463846B0476D1C6A
:10008000641EF9D52846BDE8F08110B50122022191
:10009000002000F097FC08B1072810D107220221A8
:1000A000012000F08FFC08B1072808D100210A22A6
:1000B000084600F087FC08B1072800D1002010BDD9
:1000C000BFF34F8F05480168054A01F4E061114311
:1000D0000160BFF34F8F00BFFDE700000CED00E0B3
:1000E0000400FA050EB500210091CDE901106A4621
:1000F00044F20100FFF7E4FF0EBD10B58268C3684B
:10010000934203D000F086FF002010BD052010BDF3
:1001100029B112B1531E134203D0092070470E209B
:1001200070470160838000218160C160084670478C
:1001300010B58268C3689A1A83889A4203D800F07F
:1001400073FF002010BD042010BD0000074B5B684A
:1001500023B12AB120B10068037C1BB1082070478D
:100160000720704741744261002070472020002022
:100170002DE9F047074698461446894690074FF008
:10018000000526D12CB302F0F3F9134E06F110004E
:10019000C6F80C800570457080F802904460756068
:1001A000357075701420FFF787F907211420FFF7C9
:1001B000BAF91420FFF796F90848076007211120C3
:1001C000FFF7B1F90548001F0068B0600020BDE8E6
:1001D000F0870720FBE700001020002008150140F1
:1001E0002DE9FC47DFF87890D9F8043073B368B391
:1001F000052902D20720BDE8FC87436933B3437C5D
:10020000012B25D0002704460025884616468DF888
:100210000050684600F0BAF801A802F069FFC8B1C2
:10022000012101700F4944600968C0E90218C0E962
:1002300004769DF8040089F801009DF8000000F0A4
:10024000C9F81420FFF764F92846D4E70820D2E75C
:100250000F46D8E704259DF8000000F0BBF8F3E74F
:10026000202000200415014070B50A4E01460A48BE
:10027000B578FFF742FF04464DB10020B070711C05
:100280000122C81D01F0CCFB08B1FFF72BFF20466F
:1002900070BD00003020002038310020F0B5284E1D
:1002A00089B01F460D00044672603BD0A8882968BB
:1002B00082B22448FFF72CFF002834D1A889A9680E
:1002C00082B220481030FFF723FF00282BD12022D4
:1002D0001D496846FEF7E1FF60690690207C00B189
:1002E00001208DF814008DF81C70607C00B10E2088
:1002F0008DF81500E0680290A068039020680190D6
:10030000606800900E48114A6946083001F054FBBD
:10031000002808D1B0702068401C04D09DF81D0052
:1003200018B106E0072009B0F0BD0548083001F01B
:10033000CFFB03490122491CC81D01F071FBF2E704
:100340003020002038310020A4360200492D020060
:1003500010B501460B48FFF7EBFE040010D10A4828
:1003600001F000FD60B9084906480839FFF7C5FEED
:1003700030B9054901220839034801F06DFC0446F3
:10038000204610BD483100203820002030B5EFF362
:10039000108172B60D4A9468012324B103700029BC
:1003A00000D162B630BD93604FF0E023D3F88051A6
:1003B000074C25401560C3F88041D3F88441546050
:1003C0005A17C3F8842100220270E8E75831002050
:1003D000FC06FFBC0B498A68002A11D000280FD107
:1003E000EFF3108072B60B684FF0E022C2F80031D4
:1003F0004B68C2F8043100228A60002800D162B63E
:1004000070470000583100202DE9F0410646086889
:100410000C46411C4FF0A0474FF0010506D005FAED
:1004200000F1C7F80815206801F0DFFC6068411C86
:1004300002D0002101F0C6FC3079204901EB4010C8
:10044000A169007F00283068C0F8241525D0607DA0
:10045000227D31681043C1F86C05D4E90012306880
:10046000C0F80C15C0F8142524E0A068411C02D087
:10047000002101F0A7FCE068411C05D08540C7F8C9
:100480000855E06801F0B1FCD4E902123068C0F808
:100490000825C0F81015BDE8F081607D217D326827
:1004A0000843C2F86C05D4E900123068C0F814257E
:1004B000C0F80C15207D0128D7D0ECE718310020BA
:1004C00070B540B10C4D297839B1044602F034F8CA
:1004D00028B1002070BD0E2070BD082070BDE868F6
:1004E000062807D20549226801EB8001401C0A60FA
:1004F000E860EEE7042070BD002000200C2E0020F4
:1005000040B1054900220123CA600B70C1E9010214
:10051000104670470E2070470020002000281FD092
:1005200000291DD00F4A1278002A19D00A88112AF2
:100530000ED0302A06D0322A07D0332A10D1091D16
:1005400001F006BE091D01F07BBE091D01F076BD5C
:100550008988B0F85E22914202D1002180F85B12B6
:10056000704700000020002010B50B46040009D0A1
:10057000124A107840B1D06830B194F85B0228B1CB
:10058000112010BD0E2010BD082010BDA4F85E3251
:100590000020906084F85C0284F85A0284F85902C2
:1005A00007482246012100682060184694DF002891
:1005B000EBD1012084F85B02002010BD0020002058
:1005C0000C2E002010B5044601F0A2FC204600F0DD
:1005D0008FF921460448FFF7A1FF21460248BDE8F4
:1005E0001040103800F086B8A023002070B50546F2
:1005F00008780C4601280AD002281CD0032826D1EE
:1006000013A0FFF7DFFABDE8704002F005B861887B
:1006100004F10A02284600F039F808B1FFF762FD3C
:10062000284600F0D7F808B1FFF75CFDBDE8704040
:100630000BA0FFF7C7BA002506E06068405DFFF732
:1006400087FE0028F9D16D1C207AA842F5D870BD2C
:10065000446973636F6E6E65637465640D0A0000B0
:1006600054686520646576696365206861732074E9
:100670006865204E6F72646963205541525420535F
:100680006572766963650D0A0000000048B141801B
:100690002AB15188C1801188818091880181002010
:1006A00070470E207047000030B5114B0D46040016
:1006B0000FCB85B08DE80F0018D0BDB1214668463C
:1006C00063DF002810D120788DF812000120ADF8EA
:1006D00010004FF6FF7060802868E0600020A08066
:1006E000208104A8FFF7ECFE05B030BD0E20FBE72B
:1006F000783602001FB500282ED000292CD0428861
:100700004FF6FF739A4202D08C88A24224D10C8803
:10071000112C14D0392C1FD18288002A1CD04B896F
:10072000934219D1C268002A16D002228DF8002007
:1007300001F110020192897B8DF8081009E0898887
:10074000914209D1C168002906D003218DF800101B
:100750004380C268694690471FBD7FB50022009262
:100760000192029203920B7801F10E02002B2FD11D
:100770008B88012B2CD18B790478A34228D10023BC
:1007800017E003EBC30432F81450022D02D0032DFE
:100790000ED105E002EB44042489ADF80E4007E0D9
:1007A00002EB44042589ADF80A506489ADF80C4089
:1007B0005B1C0C7A9C42E4D8C268002A08D04988A5
:1007C000ADF8021001218DF80010C268694690470B
:1007D0007FBD00001FB5010019D04888A0F57F42F9
:1007E000FF3A16D0C988A1B101228DF80C200A4B1E
:1007F00000228DF80D20D3E90423CDE90023ADF8C4
:10080000021003A9029169469CDF04B010BD0E20BE
:10081000FBE70820F9E70000783602003EB518B182
:10082000142A03D907203EBD0E203EBD4388A3F500
:100830007F44FF3C0DD0084D38CD8DE8380003894A
:100840000291ADF80230ADF80620408869469CDF81
:100850003EBD08203EBD00009436020000B513489E
:1008600089B00023806807905022114907A802F040
:1008700083F808B1FFF736FC6A460021012002F038
:1008800065F808B1FFF72EFC1720ADF81000684698
:1008900002F052F808B1FFF725FC064802F042F8D2
:1008A000002801D0FFF71EFC09B000BD3C36020055
:1008B000F8200020C505020070B50C4E0C004FF06A
:1008C000000530600BD0012000F059F808B102207B
:1008D00004E0002000F053F800B10B202070706895
:1008E00010B9FFF7D2FB0546284670BDF81F00205F
:1008F00010B51A4C0188606810290ED011292BD12F
:10090000401E606028D1FFF7C0FB002824D021687A
:10091000002921D0BDE810400847D0B900210122AC
:10092000084600F04FF808B107280FD1072202212E
:10093000012000F047F808B1072807D1042202215E
:10094000002000F03FF820B1072802D0216801B153
:1009500088476068401C606010BD0000F81F0020E0
:1009600010B5002000F034F808B1062806D10120A7
:1009700000F02EF808B1062800D1002010BD704705
:1009800010B504280ED00A2818D1002000F01CF859
:1009900008B1FFF7A7FBFFF7E3FF08B1FFF7A2FBE2
:1009A00032DF05E006481321408876DF082805D0AD
:1009B000002803D0BDE81040FFF794BB10BD000035
:1009C00090230020072070470020704700207047C8
:1009D000062070472DE9FE4F002399469A461C4693
:1009E0009B461F4606460D46624AFEF725FC864694
:1009F0006248CDE9002302905F4A002023E000BF57
:100A000007F26C734FF4C87CB3FBFCF80CFB183C8A
:100A1000BCF1000F2CD04FF0640CB3FBFCF80CFBC6
:100A200018330BB1BB0723D0B61A65EB000540F2B3
:100A30006D1819EB08094AF1000A7F1C0BF101033C
:100A4000BFB21FFA83FBB31A75EB0003D8D20BF2C7
:100A50006C7086B2BEEB0900494D61EB0A011C27A0
:100A60000122C71B2E80034671F1000719DA4CE002
:100A7000029B4FF4B778F61A65EB000519EB0809ED
:100A80004AF1000AD9E7012A0BD0032A09D0052A26
:100A900007D0072A05D0082A03D00A2A01D00C2A39
:100AA00007D11F3841F1FF31071E71F100072CDB20
:100AB0001F34022A08D0042A52D0062A50D0092A0C
:100AC0004ED00B2A4CD017E04FF4C877B6FBF7FC9A
:100AD00007FB1C67D7B36427B6FBF7FC07FB1C6753
:100AE0000FB1B70733D01C3841F1FF31071E71F148
:100AF00000070ADB1C27E4194FF01C0702F1010272
:100B0000C71BD2B271F10007BDDAAA70181B00F141
:100B10000100E870DDE9000319464FF461624FF00F
:100B20000003FEF789FB1E46144628712046314615
:100B30003C220023FEF780FB6871204631463C22B0
:100B40000023FEF779FBAA71BDE8FE8FFFE71D3891
:100B500041F1FF31071E71F10007D6DB1D27CAE7FF
:100B60001E3841F1FF31071E71F10007CDDB1E2752
:100B7000C1E70000805101008033E1010085E201FE
:100B8000B82000200249084490F930007047000066
:100B9000C030002008B5024690F85A020B4600EB20
:100BA000C00101EB001002EB800092F8592242B123
:100BB000521ED2B202EBC20100EB4102518A491C23
:100BC00000E0C188ADF800100089ADF80200694668
:100BD000184696DF08BD000070B5084C050009D026
:100BE00010342168002907D0086820604968284629
:100BF0008847F6E70834F4E770BD0000AC30002009
:100C000070B50446082802D94FF0FF3070BD4FF48C
:100C1000847000EB441005461021FEF76BFF284658
:100C2000FEF702FF0028FAD14FF4027000EB4410E7
:100C30001F21FEF75FFF0D490120A0404A88824333
:100C40004A808A8882438A800949002021F814005A
:100C50000649891D08554FF4427000EB44142046A4
:100C6000FEF7E2FE0028FAD1012070BD70200020BE
:100C7000643100202DE9F05F26484168F1B3DFF8C8
:100C800098B00E688146DBF8004087688078E11BE9
:100C900021F07F45ED1CB0B9DFF880804FF4803043
:100CA000C8F84403C8F804031120FEF705FC11201E
:100CB000FEF718FC4FF0010AC8F800A02F2000F042
:100CC000CDFD89F802A0B54200D23546124BE81995
:100CD0003C3320F07F401860DBF800105A46091BB7
:100CE00021F07F41001B20F07F40C91C81420FD9B9
:100CF000106818602F2000F0B1FD00E004E0BDE8AE
:100D0000F05F1120FEF704BCBDE8F05F01F030BCDD
:100D1000BDE8F09F102000200415014000100140A4
:100D200010B50C4606281ED2DFE800F003070B10B2
:100D30001418204602F04EFB13E0204602F0ACFAF5
:100D40000FE02078BDE8104002F070BB02F0D0FA4E
:100D5000207006E0204602F07BFB02E0204602F015
:100D6000CAFA002010BD4FF0FF3010BD2DE9F04150
:100D70000C46002102464F1E08464FF498554FF48A
:100D8000A056102A61D2DFE802F0080B17131A1ED2
:100D9000222C3643464A574E535A02F070FB4BE022
:100DA00014B1204604F10801BDE8F04102F0B7BAE1
:100DB000208802F03AFA3FE002F051FA05E020887C
:100DC00002F0FAFA38E002F059FA208034E0208884
:100DD000010A2846FEF78EFE21783046FEF78AFE8D
:100DE0002AE03046FEF720FE06462846FEF71CFEA7
:100DF00006EB0020E9E7164882782270C27862701C
:100E00000279A2704279E27080792071617113E0F9
:100E100002F0B2FB10E0204602F0C3FB0CE02046DB
:100E200002F06EFB08E02078BDE8F04102F0DEBB86
:100E300002F096FB05E020700020BDE8F08102F092
:100E400086FBC0B241B2491CF5D13846F5E7000037
:100E50008820002001460148FFF77FBC9023002036
:100E60002DE9F843054690F85A020F4600EBC00101
:100E700001EB001005EB800695F85942914604EB12
:100E8000C40006EB40013279601C0A31904226D141
:100E90006B460022284600F057FA18B310E0401EB7
:100EA000A04201D1002004E004EBC40006EB4000A6
:100EB0001C30804602466B46284600F045FA30B1A9
:100EC000002038706946484697DFBDE8F88395F8FA
:100ED00059024146401C641C85F85902E4B230793D
:100EE000A042DCD8012038700020EEE72DE9F04761
:100EF000894690F85A12904601EBC10202EB0111AB
:100F000000EB8107384601F017FB060041D0224C68
:100F1000A06806283DD200EBC000204D00EB400049
:100F200005EB80006422A0F802803946001DFEF720
:100F3000B4F90027B9F1000F07D0A06800EBC0009A
:100F400000EB400005F8207007E0A168022001EBEB
:100F5000C10101EB410105F82100A06800EBC001CF
:100F600001EB410105EB8101401C8E66A060E16848
:100F700088420ED1002608E006EBC60000EB4000D8
:100F800005EB8000816E8847761CE0688642F3D3CB
:100F9000A760BDE8F087000000200020242E00207C
:100FA00030B50D4690F85A12144601EBC10202EB1F
:100FB00001119BB000EB810001F0BEFA030007D0E5
:100FC000ADF8024001208DF8000068460195984771
:100FD0001BB030BD0E4910B50A784C780023A242F0
:100FE00012D0521CD2B20A70022A00D10B70084AE9
:100FF0000B78183252F8232002608868104420F0E1
:101000007F408860012010BD0360002010BD0000FB
:1010100010200020826883881A4003689A5C0A7056
:101020008168491C81607047C26883881A400368E0
:101030009954C168491CC160704710B50446C0B2DC
:10104000FFF786F9204610BD2DE9F04142F2086114
:1010500001EB401542F20871002601EB40142846CE
:10106000FEF7E2FC07462046FEF7DEFC00EB072019
:1010700007043F0C09D02846FEF7D6FC064620465A
:10108000FEF7D2FC00EB062086B2BE42E7D1304626
:10109000BDE8F0812DE9F04142F2080101EB401575
:1010A00042F20811002601EB40142846FEF7BCFC72
:1010B00007462046FEF7B8FC00EB072007043F0C6C
:1010C00009D02846FEF7B0FC06462046FEF7ACFCE9
:1010D00000EB062086B2BE42E7D13046BDE8F08183
:1010E00030B4044600200B46014602469D18090212
:1010F000655D521C41EA1061D2B245EA0020042A23
:10110000F4D3454A5278322A43D2DFE802F0191B61
:10111000202224262628282A2A2C2C2C2E30303235
:1011200034363842423A3A3A3D3D4545484B4E51B5
:1011300054575A5D606366696C6F7275787B7E8107
:10114000364A00E0364A801841F1FF3121E0354A45
:10115000F9E7354AF7E7354AF5E7354AF3E7354A1F
:10116000F1E7354AEFE7354AEDE7354AEBE7354A2F
:10117000E9E7354AE7E7354AE5E7354AE3E7354A3F
:10118000E1E74FF4616201E04FF4E152801841F170
:10119000000130BCFFF71EBC42F63022F6E743F2F6
:1011A0003812F3E74FF46152F0E743F64872EDE787
:1011B00044F25062EAE744F65852E7E745F2DC02AF
:1011C000E4E745F26042E1E745F66832DEE746F2E1
:1011D0007022DBE74FF4E142D8E747F69062D5E7AB
:1011E00048F29852D2E748F6A042CFE749F2A83237
:1011F000CCE749F6B022C9E74AF2B812C6E74AF688
:10120000C002C3E74BF24C32C0E74BF2D062BDE7FD
:101210004CF2E042BAE70000B02000204057FFFF48
:101220005065FFFF6073FFFF687AFFFF7081FFFF6B
:10123000808FFFFF909DFFFFA0ABFFFFB0B9FFFFC6
:10124000B8C0FFFFC0C7FFFFC8CEFFFFD0D5FFFF6C
:10125000E0E3FFFFF0F1FFFFF8B51C4C2078002819
:1012600032D0E068002658B10025607800282BD1E4
:10127000684648DF052805D030B1FEF733FF0AE0A5
:101280000125F2E7012606E0009800F069FB2169DC
:1012900009B1009888479DB96078002814D160880A
:1012A000ADF800006946A06861DF052803D020B1D1
:1012B000FEF718FF04E0012502E0D4E902018847A7
:1012C000002ED2D0002DE6D0F8BD00004420002032
:1012D00070B50E460446007918494FF4A27501EB2B
:1012E0004010017F2068A1B14FF4887100F0D4FD57
:1012F0004FF49071206800F0CFFD4FF49271206898
:1013000000F0CAFD2946206800F0C6FD0C4920689F
:1013100009E04FF48E7100F0AEFD2946206800F020
:10132000AAFD08492068C0F80413206800F039FBC2
:101330003146BDE8704000F018BB000018310020B5
:10134000100302008000020010B509892AB1D0887C
:10135000491C814218D1002010BD90F85A2202EB9E
:10136000C20404EB021200EB820212899142F2D015
:10137000491C198090F85A1201EBC10202EB0111CD
:1013800000EB8100008902E01980D088401E58805F
:10139000012010BD2DE9F8430E468146002401F1DD
:1013A000100561E029192F5D487802280AD003282A
:1013B00008D0042824D0052822D006283ED00728AB
:1013C0003CD04FE04FF0000816E000BF04EB4800AF
:1013D000411902206A46891C64DF58B9BDF8001023
:1013E000B9F80000814205D19DF8021099F8020079
:1013F000814234D008F10108B8EB570FE6D331E051
:101400004FF0000816E000BF04EB880041190220ED
:101410006A46891C64DF58B9BDF80010B9F80000AD
:10142000814205D19DF8021099F80200814216D040
:1014300008F10108B8EB970FE6D313E010206A46D5
:10144000891C64DF70B9BDF80010B9F80000814252
:1014500008D19DF8021099F80200814202D10120C2
:10146000BDE8F8833C44641CF07BB4EBD00F99D307
:101470000020F5E72DE9F043264CA4F1100922786D
:10148000D9F8048099F80350404694F801C0D9F87F
:10149000086031E002EB42036168521C01EBC301BA
:1014A000A378D2B2934200D100220B78022B02D053
:1014B000032B21D11DE003464F68194603E0B942D2
:1014C00003D00B46C969B9B1F9E7A9B18B4205D17F
:1014D000C06918B9104E0125B56000260F68C969AA
:1014E000D96149B10B683B440B6005E00174C069E8
:1014F00000E000210028F9D19445CBD1C9E90106CB
:1015000089F80350404502D00120BDE8F083002057
:10151000FBE7000020200020001001402DE9F041F1
:101520002A4F0446002607F11005D7F804803EE054
:1015300002D02046E4691DE02878696800EB40028B
:10154000401CC0B201EBC2012870AA78904200D1C1
:101550002E700A784868012A2BD1027C4ABB8A681F
:101560004260CA6882600A69C26049698161F9782B
:1015700001B146604368BA68DFF854C0991A21F097
:101580007F41614502D28268114406E0D11A826827
:1015900021F07F418A4202D9511A016000E00660C1
:1015A0004660012186600174C66101F023FB002CB6
:1015B000BED1287869788842BED17968414502D089
:1015C0000120BDE8F0810020FBE700001020002092
:1015D000FFFF7F0036A08CB0006800230690354ADC
:1015E00003211846FEF7C4FD08B1FEF77BFD182263
:1015F00031496846FDF751FE304807904FF480703E
:101600002F490A90CDE9080107232E4A07A9684609
:10161000FEF744FE08B1FEF765FD2B4A40F6CD41CA
:101620000120FFF7D3F908B1FEF75CFD6946002001
:10163000FFF742F908B1FEF755FD2448FEF760FFB9
:1016400008B1FEF74FFDFFF709F92148009019484E
:1016500069464830FFF728F808B1FEF743FD01F06E
:10166000C3F901F0C9FC1B4B282206A90020FDF795
:10167000A9FF1148184A01211C38FEF767FD08B17F
:10168000FEF730FD0C4800221C384FF4F0110068C2
:10169000FEF7A6FD08B1FEF725FD10A0FEF792FAB1
:1016A00000F0BAFF3EDF0028FCD0FEF71BFDF9E793
:1016B000D3E954BA482300205836020048210020BC
:1016C00048220020F12C020081090200550E020080
:1016D000ED05020000260020A51E0200556172746F
:1016E0005F63205363616E20737461727465640D6F
:1016F0000A00000010B586B020490020FFF710FB5B
:101700001E490120FFF70CFB03A90820FFF72EFB61
:1017100003A91BA0FEF756FA184CE07862792179EC
:101720008DE80700A378627821781BA0FEF74AFABB
:10173000607A0090237AE279A17921A0FEF742FA3B
:10174000607C0090237CE27BA17B22A0FEF73AFA2A
:10175000607B0090237BE27AA17A23A0FEF732FA25
:10176000607D0090237DE27CA17C24A0FEF72AFA14
:1017700027A0FEF727FA06B010BD00005820002071
:101780000D0A3D3D3D202573204E455420434F4ECC
:1017900046203D3D3D0D0A004D41433A2025303263
:1017A000583A253032583A253032583A2530325896
:1017B0003A253032583A253032580D0A00000000E0
:1017C0005349503A2025642E25642E25642E256425
:1017D0000D0A00004741523A2025642E25642E252B
:1017E000642E25640D0A00005355423A2025642ECC
:1017F00025642E25642E25640D0A0000444E533ABC
:101800002025642E25642E25642E25640D0A0000F3
:101810003D3D3D3D3D3D3D3D3D3D3D3D3D3D3D3DF8
:101820003D3D3D3D3D3D0D0A00000000C20800F079
:1018300007030120895C98400840704700F1804010
:101840000068002800D00120704708B500F18040F2
:10185000002101600068009008BD000000283ED013
:101860001F49204A096800BF00BF00BF00BF00BF7A
:1018700000BF00BF00BF91422FD000BF00BF00BF1C
:1018800000BF00BF00BF00BF00BF00BF00BF00BF60
:1018900000BF00BF00BF00BF00BF00BF00BF00BF50
:1018A00000BF00BF00BF00BF00BF00BF00BF00BF40
:1018B00000BF00BF00BF00BF00BF00BF00BF00BF30
:1018C00000BF00BF00BF00BF00BF00BF00BF00BF20
:1018D00000BF00BF00BF00BF00BF0138C3D17047C9
:1018E000C02000200024F40070B50F4C00252078A3
:1018F00008B1852516E00021A16061602161E160E9
:101900004FF0E020D0F80001012610F0010F03D1C4
:101910000721002000F029F801F060F808B9034819
:1019200006602670284670BDAC30002018050040C7
:1019300038B500208DF800006846FEF727FD074CFB
:10194000207808B9FFF7D0FFE068401CE060012074
:10195000A0709DF80000FEF73DFD38BDAC300020C2
:10196000002801D1FFF738B970474907090E002850
:1019700006DA00F00F0202F1E02282F8141D03E003
:1019800000F1E02282F8001400F01F0201219140D2
:101990004009800000F1E020C0F88012C0F800117A
:1019A0007047000B40B270470121B1EB507F01D16D
:1019B00001207047002070472DE9F041054600796D
:1019C000164F904607EB40140E46E07E10B10820FB
:1019D000BDE8F081707F20772846FEF715FD5FEAAD
:1019E000080060603169216003D0317F2846FFF72D
:1019F0006FFC287907EB4010007F0028286801D091
:101A0000082100E00421C0F800150020E0752076D0
:101A1000A0750121E176A076DAE7000018310020F8
:101A20002DE9F04105460079284E904606EB40141A
:101A30000F46207F18B10846FFF7B6FF80B16268F5
:101A400000234FF404704FF4017172B12A7906EB50
:101A50004212127F002A2A6805D0C2F8080304E067
:101A60001020BDE8F081C2F80813E27DB2B1227EF9
:101A70007AB162685AB12A7906EB4212127F1AB122
:101A80002968C1F8040302E02868C0F80413112093
:101A9000E7E72761012384F8188005E084F81780C0
:101AA0000020E760607620762879424606EB4010F9
:101AB0003946007F0028284603D0BDE8F04100F0F9
:101AC00073B8BDE8F04100F01BB8000018310020E9
:101AD00070B504460079094D05EB4010017F0029DF
:101AE0000AD1807E002807D1204600F084FD2179AC
:101AF000012005EB4111887670BD000018310020EF
:101B00002DE9F05F04460079264901EB4015A87ED7
:101B1000184302D1204600F06EFD68680028206856
:101B200006D04FF40171C0F804130020BDE8F09F07
:101B30004FF4A276314600F09EF9B1464FF4927A06
:101B40004FF4847B5146206800F090F906465946D0
:101B5000206800F08BF980464946206800F086F93D
:101B6000074648EA07003043ECD056EA070007D1A1
:101B70002946206800F01AFDE87D697E8842E1D898
:101B80000020E8750EB10320D0E70FB10F20CDE79C
:101B9000A97E01200029216801D00860C5E74860BE
:101BA000C3E70000183100202DE9F05F89460446A4
:101BB0004FF488759A46904600260068294600F042
:101BC0006BF94FF4A2773946206800F065F9206878
:101BD000C0F83495C0F838852068BAF1000F14D0E9
:101BE000D0F8001241F02001C0F800122179DFF88E
:101BF000648008EB4110406850B120684FF40471D4
:101C0000C0F804133046BDE8F09F01210160EDE704
:101C1000AA46B9464FF4927B5146206800F037F946
:101C200007464946206800F032F9054659462068C3
:101C300000F02DF9014647EA05000843ECD023796E
:101C4000002208EB4310C27501B10326002DD9D044
:101C50000F26D7E7183100202DE9F0470546007917
:101C60003F4E904606EB40140F46207F18B10846C1
:101C7000FFF79AFE30B1284600F074F820B1112029
:101C8000BDE8F0871020FBE784F81680A7600027E6
:101C9000A78228794FF0010806EB40143E46207FCA
:101CA0000028286825D04FF49079494600F0F4F8D0
:101CB0004FF4AC7A5146286800F0EEF82868A17D10
:101CC000A268C0F84425C0F848152868C0F8088004
:101CD0006068F0B94946286800F0D9F88046514656
:101CE000286800F0D4F858EA0001F3D058BBA77573
:101CF0000FE04FF48E7A514600F0BDF82868C0F826
:101D000008802146286800F0D5FF61684FF4807094
:101D100089B13046B4E75146286800F0A7F810B9F9
:101D2000A08A4845F7D1A08A484505D021462868B1
:101D300000F0C0FF00E08146A08AA17D8842EAD37E
:101D4000A08A484501D10F26D1E75146286800F006
:101D50008DF80028F9D02868C0F80C80C7E700008B
:101D6000183100200079044901EB4010807D0028E3
:101D700000D00120704700001831002070B541EA02
:101D80004201DDE904564FF0A04441EA830141EAF3
:101D9000052104EB800041EA0641C0F8001770BD40
:101DA00070B541EA4201DDE904564FF0A04441EA32
:101DB000830141EA052104EB800041EA0641C0F8B5
:101DC000001770BD1CB500220B460092114601920F
:101DD000FFF7E6FF1CBD1CB5002100910B46012258
:101DE00001911146FFF7CAFF1CBD1CB500210091EF
:101DF0000B46012201911146FFF7D2FF1CBD4FF0A7
:101E0000A04202EB8000D0F8002722F44032C0F854
:101E10000027D0F8002742EA0141C0F800177047B8
:101E200018B5084B6C4601441B68009306E000BFE0
:101E300054F82030D3F81035401C08C28142F7D83E
:101E400018BD0000A0360200034908B5084400216F
:101E500001600068009008BD0060004002494058E1
:101E6000012800D000207047006000404058002842
:101E700000D00120704708B5002242504058009021
:101E800008BDD0F80403084000D001207047405836
:101E9000002800D00120704708B500224250405869
:101EA000009008BD00B585B00DA0FDF78BFE03A81E
:101EB000FDF7B6FB0128FAD19DF810009DF812201D
:101EC0009DF811108DE807009DF80F309DF80E2049
:101ED000BDF80C1008A0FDF775FE05B000BD0000B0
:101EE0000D0A2323232323232323232320534E5468
:101EF000502052756E0D0A0025642D25642D256431
:101F00002C2025643A25643A25640D0A000000005F
:101F10003EB50446011D00881F2856D027DC102836
:101F20002FD013284BD01B283BD01D281ED1091DB4
:101F30000C462C48FFF72EFA002817D0294A2046D5
:101F4000083202F108018CDF00280FD1FEF73CFDBA
:101F500008B1FEF7C7F82079A27961798DE807000A
:101F6000E378A278617820A0FDF72CFE3EBD3B28E7
:101F70002FD0552831D05628F8D1A088132176DFEC
:101F800009E00720FEF720FD08B1FEF7ABF8A188B5
:101F90002148FEF7E9FA0028E8D0BDE83E40FEF708
:101FA000A1B80879022806D00328DFD1BDE83E4059
:101FB0001AA0FDF707BEBDE83E4000F02DBB002390
:101FC000A0881A4685217FDFE5E731F8040B75DF2D
:101FD000E1E7A088132176DFDDE7A0881721ADDFD8
:101FE000D9E7000040360200436F6E6E6563746986
:101FF0006E6720746F2074617267657420253032BB
:1020000078253032782530327825303278253032D4
:1020100078253032780D0A00A0230020436F6E6EC1
:10202000656374696F6E2052657175657374207491
:10203000696D6564206F75742E0D0A002DE9F84FE7
:1020400005460C460888B5F85E12884259D195F8C5
:102050005A02DFF8F8A000EBC00101EB001005EB1D
:10206000800160884FF003094FF00008F0BBE6885C
:102070000879A21DF3B250FA86F6052E01D8034462
:1020800000E005230B7100261CE000BF00EBC0033D
:1020900006EB860702EB470701EB4303D7F802C0C4
:1020A000C3F80AC0D7F806C0C3F80EC07F895F82A4
:1020B000A3F81480A3F81680A3F81880401CA3F896
:1020C0001A80761C0B798342E0D895F85A2200EBEF
:1020D000C00002EBC20303EB021205EB820231F8EF
:1020E0001000128990420ED2087900E00BE005281A
:1020F00009D085F8590221882846FEF74BFD0100DA
:102100000AD1BDE8F88F85F85982228869462846A9
:10211000FEF7A6FE01000BD085F85B8222882846D8
:10212000FEF73EFF8AF800902188AAF80210E8E73F
:102130009DF800000028E4D0228801212846FEF7FF
:10214000D5FE2188284600F0B1F8DAE7242E0020D9
:10215000F8B505460C460888B5F85E1288425DD190
:1021600095F85A02A61D00EBC00101EB001005EB2B
:10217000800395F85902618800EBC00003EB400032
:102180000A3039B329E000BF01EB410206EB4202FD
:102190009788B7F5245F0CD06FF4245C17EB0C071D
:1021A0000AD0012F02D0072F0BD108E052884281BC
:1021B00007E05288828104E05288C28101E052889F
:1021C000028242892AB182891AB1C2890AB1028A7D
:1021D0001AB9491C32888A42D6D800268DF8006088
:1021E00095F859021979401C884203D101208DF8D5
:1021F000000018E085F85902228869462846FEF753
:102200002FFE01000BD085F85B6222882846FEF77E
:10221000C7FE0A480321017021884180F8BD9DF85E
:1022200000000028FAD0228801212846FEF75EFE31
:102230002188284600F03AF8F8BD0000242E00203E
:1022400070B505460C4690F85A02228800EBC00192
:1022500001EB001005EB8001B5F85E02824222D14D
:10226000608848B100212846FEF740FE21882846B4
:10227000BDE8704000F01AB8A2680A60E068C1F8D2
:10228000060021882846FEF785FC01000BD00020BF
:1022900085F85B0222882846FEF782FE0248032169
:1022A00001702188418070BD242E00202DE9F0416D
:1022B000044690F85C020E46401C1949C0B284F8EE
:1022C0005C02C9680327174D4FF0000E884224D2E4
:1022D00084F859E294F85A02401CC0B200EBC001E5
:1022E00001EB001104EB810284F85A02A5F11801F8
:1022F00001EB800001210068106082F804E03046A4
:1023000094DF010007D084F85BE232462046FEF7F6
:1023100047FE2F706E80BDE8F08184F85BE2F8E73D
:1023200000200020242E00202DE9FF4F002583B03F
:10233000984617460446082803D9681E07B0BDE82A
:10234000F08F60014FF0010A0830FDF76DFB834606
:1023500000F00F00022804D0042802D06FF004001F
:10236000ECE72FB1DFF8789139F8140018B11EE0CE
:102370006FF00D00E2E74FF4427000EB44160AFAEA
:1023800004FA2046FEF760FE05463046FDF74CFB9A
:1023900030B1544949881AEA010F06D01DB106E050
:1023A0006FF00300CAE70020C8E7002DE9D00BF06A
:1023B0000701DFF830A14FF484704FF0800B0AF171
:1023C000060A00EB4416022920D004295AD02946D7
:1023D000204600F0D5FE29F8145030464021FDF784
:1023E00089FB3046FDF720FB0028FAD139F814109C
:1023F000491B0904090C29F8141003D01AF8041019
:1024000041F001010AF80410284697E739F8140052
:102410004D4680BB08226946204600F081FE3046CA
:102420004021FDF767FB3046FDF7FEFA0028FAD1A0
:102430009DF8001088F800109DF8011088F8011030
:102440009DF8021088F802109DF8031088F8031018
:1024500010999DF8040008809DF8051001EB0020FC
:10246000109908809DF806009DF8071001EB0020E8
:1024700025F814002BE02CE02A462046049900F0B1
:102480004FFEAAE739F814004D4610BB02226946F8
:10249000204600F045FE30464021FDF72BFB30463C
:1024A000FDF7C2FA0028FAD19DF800009DF801104E
:1024B00001EB002080B240F2EA5125F81400884276
:1024C00005D92046FEF79CFB6FF47A7036E70AF8D0
:1024D00004B035F81450BD42CED93D46CCE70000DB
:1024E0006431002070200020054A18B111B1C2E902
:1024F00004017047034810610348506170470000B1
:10250000882000204F3202004D320200074A10B5E9
:1025100013889C05FDD518B111B1C2E9060110BDA3
:10252000034890610348D06110BD0000882000205E
:10253000793402007D34020070B50C4B00210A4A48
:10254000DC680DE002EB81058678AD78B54206D1F6
:1025500032F821500688B54201D1586870BD491C37
:10256000A142EFD3002070BD0C2E002000200020DF
:1025700070B5012670044FF0E0210025C1F88001FC
:10258000084C4010C4F84803C4F8080366602F20C4
:10259000FFF764F9A660044C2F20A560FFF75EF9F1
:1025A000A57070BD001001401020002070B50546D8
:1025B000C87D0C4600284FF4847128460AD0FFF7E6
:1025C0005AFCD5F81805627EE1688854607E401C8C
:1025D000607670BDFFF74FFCD5F8180570BD1FB5CC
:1025E00001238DF800308DF808100192D0E9001217
:1025F000684690471FBD10B5044600684FF49271BD
:10260000FFF739FC4FF484712068FFF734FC206831
:102610000121016010BD000010B507488ADF08B134
:10262000FDF760FD0120FEF7CFF9002803D0BDE8DB
:102630001040FDF757BD10BD5036020010B50446DE
:10264000FDF7E0FA40B1002C09DA04F00F0000F1C8
:10265000E02090F8140D06E042F2010010BD04F1F4
:10266000E02090F800044109082914D299B1012909
:1026700011D004290FD005290DD00B480122816803
:1026800061B1610950F8213004F01F04A2401343E6
:1026900040F8213005E042F2020010BD2046FCF770
:1026A0002CFF002010BD0000583100202DE9F0471C
:1026B0001E46DDF8208015468A460446082803D9C0
:1026C0004FF0FF30BDE8F08760014FF0010908309E
:1026D000FDF7AAF900F00F00022804D0042802D068
:1026E0006FF00400EEE7DDB13078717801EB002087
:1026F000B17801EB0020F17811EB002013D0B8F194
:10270000000F13D04FF4427000EB44100746FDF762
:102710008BF942280DD022280BD06FF00600D1E7AC
:102720006FF00D00CEE76FF00B00CBE76FF00A0003
:10273000C8E740F6084000EB441004223146FDF79C
:1027400009FA41F208004FEA182100EB4410FDF7A6
:10275000D1F941F2081008F0FF0100EB4410FDF739
:10276000C9F941F6087000EB4410FDF75DF94FF62A
:10277000FF7101EA8020854200D90546DFF8888094
:1027800009FA04F62046FEF785FC81463846FDF737
:102790004BF938B1B8F80200064206D04D4504D9CD
:1027A00000208FE76FF003008CE74D45EAD82A46FA
:1027B0005146204600F005FD4FF4847000EB4410B4
:1027C00006462021FDF796F94FF4027000EB441401
:1027D0003046FDF729F90028FAD12046FDF724F903
:1027E00000F01F00C10605D520461021FDF782F933
:1027F000284667E70007F0D520460821FDF77AF95B
:102800006FF00C005EE70000702000202DE9F84317
:102810001D4617460E460446082803D94FF0FF30E0
:10282000BDE8F883012E06D0022E0CD0042E0AD06B
:102830006FF00400F4E7042269464FF47060FDF77E
:102840001FF9009848B169076FF00500E8D49DB101
:10285000012E05D0022E0FD106E06FF00200DFE757
:1028600015F0210FDCD007E0A90601D52906D7D540
:10287000E90601D52906D3D52046FEF7C1F9600146
:1028800005F0F0014FF0010831430830FDF732F94F
:10289000224E57B93788781C80B2A0F57F4130802E
:1028A000F03902D14FF4404030804FF48160390A52
:1028B00000EB4410FDF71EF94FF4A160F9B200EBF4
:1028C0004410FDF717F94FF4847000EB44100746ED
:1028D0000121FDF70FF93846FDF7A6F80028FAD1D7
:1028E00008FA04F0718805F001028143A2400A430E
:1028F0007280B1888143B1800949002021F8140019
:102900000649891D08554FF4427000EB44152846CE
:10291000FDF78AF80028FAD060B281E77020002025
:102920006431002018B10349C860002070470E20B0
:1029300070470000442000201CB50349019100911C
:10294000694660DF1CBD0000E81F002070B50E4620
:10295000054614461C211046FCF7B8FC01202080D7
:102960000021A16121752672657205B1A072002057
:1029700070BDFDF7A5BB00002DE9F041074619B178
:1029800088074FF0000402D00720BDE8F081114D08
:102990004FF0E0200126A9606A806B60D0F800014A
:1029A00010F0010F03D034460020FCF790FD0A49D7
:1029B000384610DF070005D014B10020FCF79DFD5C
:1029C0003846E2E72E70FEF7B3FFBDE8F04116206F
:1029D000FFF734BE4420002073290200014800782C
:1029E00070470000442000201CB50549D1E90001D2
:1029F000CDE900016946002000F004F81CBD00008C
:102A0000703602002DE9FC410C460546012802D92A
:102A10000020BDE8FC81244905EB450001EB4000A6
:102A200021680160A1888180A078FFF7D4F9E0785F
:102A3000FFF7D1F900262079009633463246314619
:102A40000196FFF79BF96079FFF7C5F91748A17860
:102A500050F82520C2F8081550F82520E178C2F872
:102A60000C1550F825202179C2F8101563794FF024
:102A7000A047012202FA03F1C7F80815617850F85F
:102A800025300906C3F8241550F825302178C3F8FD
:102A9000541550F82510C1F8086150F82510C1F8F8
:102AA000002550F82500B4E7002E0020F01F00207C
:102AB00010B552B1134B53F820001B1F18600023B0
:102AC000C0F80831C0F81C350EE0002010BD00BF72
:102AD000C0F81C35D0F80841002CFBD0C0F80831F4
:102AE000D0F8184502F8014B491E0904090CEFD132
:102AF000D0F808110029FBD0D0F81805107001207B
:102B000010BD0000F01F002038B562B1154B53F81E
:102B100020001B1F18600023C0F8083112F8014B79
:102B2000C0F81C450FE0002038BD00BF12F8015B63
:102B3000C0F81C55D0F80841002CFBD0C0F8083173
:102B4000D0F818450094491E0904090CEED100BFC5
:102B5000D0F808110029FBD0D0F81805009001200A
:102B600038BD0000F01F00202DE9F84F204C002553
:102B70006846D4E901B6FEF72DFA8046FEF77AFCE6
:102B80000746A946B8F1000F25D00023009ACC468D
:102B9000606819E007680146974202D9BA1A0260D4
:102BA00014E0C1F800C0D1F80C80D21BC8693B44C6
:102BB0008A46B8F1000F07D0F71827F07F47C1E920
:102BC0000178CAF81C500D460028E3D16060284601
:102BD000FEF7A4FC04E02846FEF7A0FC00B917B1FC
:102BE0005846FEF747F884F80390BDE8F88F0000D8
:102BF000102000200D4B10B5596831B102680C68E7
:102C0000A24204D8A21A0A60C161586010BD0B46E6
:102C100003E00B46C969121B21B10C689442F8D33A
:102C2000A41A0C600260C161D86110BD10200020A0
:102C30002DE9F0411D4D6C68002C35D01C48002753
:102C40000068A968B846401A20F07F462068B04264
:102C500015D82246361A0744E469107C68B182F818
:102C60001080EB6833B1D2E90501984728B1FDF730
:102C700039FA02E0D2E905108847002CE6D129781C
:102C80006878814206D1401CC0B26870022801D128
:102C900085F8018005486978183040F82170BDE852
:102CA000F0411420FCF734BCBDE8F0811020002076
:102CB0000415014070B50C4605464FF48E71FFF7C0
:102CC000DAF8A18AA068415CA08A401CA082C5F8FD
:102CD0001C1570BD1FB500228DF800208DF808105E
:102CE000816801918275D0E90012684690471FBD46
:102CF00070B5017841B1012901D002291ED1406887
:102D0000BDE87040FDF7EEB90E4C0D4D207828441B
:102D1000FDF7AAFA2078401CC0B22918207011F8DB
:102D2000011C0A2901D0142808D30549227801F58D
:102D30002B70FDF773FD0028F7D1207070BD0000E7
:102D4000E4200020E81F00207CB50178244D81B3E9
:102D500001290BD002292BD18DF80010C068691C05
:102D600001900122C81DFEF75BFE2EE0406801784D
:102D70001C48FDF7DDF91B4C012618B18DF80060E9
:102D8000019006E0A068E168814205D000208DF83E
:102D90000000696868468847A068E168081AA18849
:102DA000884207D80E490122491CC81DFEF738FE8B
:102DB0007CBD01E0AE70FBE70A4809491030FDF721
:102DC0009CF930B103208DF8000069686846884797
:102DD000EEE70349012201F10800FEF73DFFE7E7B6
:102DE00030200020383100202DE9FF470C460546F1
:102DF0004FF40071FFF745F801274FF401780026E2
:102E000018B34FF4927949462846FFF72FF8E0B1FE
:102E100049462846FFF72FF8C5F80883A07E00B979
:102E20006F6002208DF80000D5F88004C5F880049A
:102E30000390E07D8DF80800E0680190E675267645
:102E4000D4E900126846904727E004212846FFF79E
:102E500018F810B34FF484712846FFF707F8E0B173
:102E600021462846FFF7A2FBE07D617E884214D10F
:102E7000207E38B1617EE268E0752069E0602676E8
:102E8000667607E0A07E00B96F60C5F80883E67536
:102E9000617EE2682046FFF7A2FB4FF48E78414640
:102EA0002846FEF7E3FF88B1A08AA17D884204D2BC
:102EB00021462846FFF7FEFE08E041462846FEF779
:102EC000DAFFA17D11B12046FFF704FF4FF4A2788D
:102ED00041462846FEF7CAFF002812D04146284640
:102EE000FEF7C9FFA07E00B12F60E07D002808D06A
:102EF000E675617EE26804B02046BDE8F047FFF762
:102F00006EBBBDE8FF872DE9FF410C464FF4927779
:102F100005463946FEF7BBFF0026C0B139462846B4
:102F2000FEF7BAFF02208DF80000D5F88004C5F83E
:102F300080040390D5F83C058DF80800E068019006
:102F4000E6752676D4E900126846904724E04FF4EF
:102F5000887739462846FEF79AFFE8B13946284671
:102F6000FEF79AFFD5F83C05C1B2E07D884213D147
:102F7000207E60B1E268D5F8000220F02000C5F89C
:102F80000002207EE0752069E060267601E0E675AB
:102F9000E2682046FFF723FB4FF4A2773946284624
:102FA000FEF775FF68B139462846FEF775FFE07DEC
:102FB00038B1E675D5F83C05E268C1B22046FFF7A6
:102FC0000EFB4FF4907631462846FEF760FF00284E
:102FD0000FD031462846FEF75FFFA07D002808D0BD
:102FE000D5F84C0504B0C1B22046BDE8F041FFF76A
:102FF00071BEBDE8FF81000000B51D4B87B00DF12B
:10300000040C0FCB8CE80F001A491B48FFF76CFA31
:103010001A491B48FFF77AFA1AA0FCF7D3FD01A959
:103020000120FDF7A3FE401C09D01BA0FCF7CAFD40
:1030300069460F20FDF79AFE401C04D006E01EA052
:10304000FCF7C0FDFEE723A0FCF7BCFD9DF80000E7
:103050000028EDD001208DF814004FF47A70ADF8FF
:10306000160005A800F0F4F9FEF744FB07B000BD18
:10307000C436020051320200AB330200F3340200C6
:10308000993302005735353030206D656D6F727998
:1030900020696E69740D0A0057353530302050486C
:1030A00059204C696E6B20537461747573204368AA
:1030B00065636B0D0A00000057495A434849502088
:1030C000496E697469616C697A6564206661696CCE
:1030D0002E0D0A00556E6B6E6F776E20504859208A
:1030E0004C696E6B207374617574732E0D0A000049
:1030F0000A4A10B553789478591CC9B28C4200D151
:10310000002114788C4201D1002010BD017050685C
:1031100003EB430100EBC10010BD000020200020A4
:103120002DE9F0475FEA02088946064626D042F6B6
:10313000081000EB46152846FCF776FC074642F6D9
:10314000080000EB46142046FCF76EFC07EB00205D
:1031500087B2380200EB4610424649461830FCF769
:103160008FFC07EB080086B2310A2046FCF7C2FC50
:10317000F1B22846BDE8F047FCF7BCBCBDE8F087DB
:103180002DE9F041044642F6081000EB44150E46C6
:103190002846FCF749FC074642F6080000EB4414B9
:1031A0002046FCF741FC07EB0020304486B2310A90
:1031B0002046FCF79FFCF1B22846BDE8F041FCF741
:1031C00099BC2DE9F0475FEA02088946064626D0F9
:1031D00042F2085000EB46152846FCF725FC07464E
:1031E00042F2084000EB46142046FCF71DFC07EBBA
:1031F000002087B2380200EB4610424649461030A4
:10320000FCF7A8FC07EB080086B2310A2046FCF761
:1032100071FCF1B22846BDE8F047FCF76BBCBDE895
:10322000F087007870470170704710B5040A00F00D
:10323000F0014FF4A850FCF75DFC2146BDE81040BA
:103240004FF4B850FCF756BC704770477047704752
:103250004FF0A0414FF40060C1F80805704710B569
:103260004FF4A850FCF7E0FB00F0F0044FF4B85026
:10327000FCF7DAFB04EB002080B210BD10B54FF470
:10328000B050FCF7D1FB04464FF4C050FCF7CCFB28
:1032900004EB002080B210BD10B5044601460622A2
:1032A0004FF41060FCF7ECFB042204F10E019001D6
:1032B000FCF7E6FB042204F10A014FF4A060FCF7DE
:1032C000DFFB0422A11D4FF47060FCF7D9FB074817
:1032D0000178A1744178E17481782175C0786075B6
:1032E0000248401E0078A07510BD0000812000201B
:1032F0000020FCF799BB70B504464FF4D850FCF79A
:1033000093FB20704FF4D050FCF78EFB05464FF432
:10331000C850FCF789FB05EB0020608070BD2DE9EB
:10332000F0410D460646002400F0A9F84FF0FF38A2
:10333000AEB10022B05C204444B2102C17DC521C09
:1033400052B2082AF6DB002441F60877315D07EB1C
:103350004410FCF7CFFB641C64B2082CF6DBCDB143
:10336000002108462A5C114449B2102902DD40467A
:10337000BDE8F081401C40B20828F3DB002441F690
:103380000866295D06EB4410FCF7B4FB641C64B2CC
:10339000082CF6DB0020EBE708B56A460121002087
:1033A000FFF786FB9DF8000008BD4FF0A0414FF4E9
:1033B0000060C1F80C05704710B5C1B2040A4FF4A3
:1033C000B050FCF797FB2146BDE810404FF4C050C9
:1033D000FCF790BB10B50446014606224FF410607E
:1033E000FCF7B8FB042204F10E019001FCF7B2FBDC
:1033F000042204F10A014FF4A060FCF7ABFB0422A5
:10340000A11D4FF47060FCF7A5FB0748A17C01707B
:10341000E17C4170217D8170617DC1700249A07D98
:10342000491E087010BD00008120002010B5044620
:1034300030F03A0002D04FF0FF3010BD0020FCF712
:10344000F3FA40EA04010020FCF754FB002010BD11
:1034500010B5044601784FF4D850FCF74BFB608858
:10346000010A4FF4C850FCF745FBA178BDE81040B5
:103470004FF4D050FCF73EBB002070477047F0B5CA
:1034800085B04FF41064062269462046FCF7F8FA2E
:103490000422950102A92846FCF7F2FA4FF4A0662F
:1034A000042203A93046FCF7EBFA4FF470670422BC
:1034B00004A93846FCF7E4FA80210020FCF71AFB47
:1034C0000020FCF7B1FA062269462046FCF742FBD1
:1034D000042202A92846FCF73DFB042203A930463A
:1034E000FCF738FB042204A93846FCF733FB05B08F
:1034F000F0BD01B56A4601210020FFF705FB08BDBC
:1035000010B504464FF43850FCF78EFAC0F3801122
:10351000217000F0380001220021202811D0382825
:103520000FD0617010280ED018280CD020280AD097
:10353000A170082809D0182807D0202805D0E170EC
:1035400010BD6270EEE7A270F3E7E27010BD10B537
:103550004FF43850FCF768FAC00700D0012010BDC6
:1035600010B500244FF43850FCF75EFA10F0300F1D
:1035700000D00124204610BD10B54FF43854204629
:10358000FCF752FA20F080012046FCF7B3FA2046FF
:10359000FCF74AFA40F080012046BDE81040FCF7F5
:1035A000A9BA10B502780021012A00D14021427841
:1035B000012A06D0C2788078012A05D001280BD0D4
:1035C0000CE041F0380109E0012802D041F0080187
:1035D00004E041F0180101E041F010014FF43850CF
:1035E000FCF788FABDE81040FFF7C6BF70B5044687
:1035F0004FF438563046FCF717FA41064FF0FF35C6
:103600001AD520F03800012C10D040F03801304697
:10361000FCF770FAFFF7B0FF3046FCF705FA012C13
:1036200007D000F0380038B1002070BD40F0300104
:10363000EDE700F03000F6E7284670BDC42000201A
:10364000010002000100000710003C000000900192
:103650000100A00050000000190000001A00000046
:10366000FF000000FF0000000100000000E0D701A3
:1036700006800A08090B00009ECADC240EE5A9E0BA
:1036800093F3A3B50000406E0101000000000200AA
:103690000000000002010000000000000000000027
:1036A00000000050FFFFFFFFFFFFFFFFFFFFFFFFD6
:1036B000FFFFFFFF00000000000000000000D60137
:1036C00007010000020202020202020202020202DA
:1036D00002020202F4360200E81F0020DC000000B3
:1036E000E4FB0100D0370200C42000201C310000A0
:1036F000F4FB01000000000000000000003000406A
:103700000040004000000000000000000000000039
:1037100000000000000000000000000000000000A9
:103720000000000000000000000000000000000099
:103730000000000000000000000000000000000089
:103740000000000000200040000000000000000019
:103750000000000000000000000000000000000069
:10376000000000000008DC00ABCDDE62ADE1FFFF31
:10377000FF00DE62ADFE08080808010000C000007E
:103780000000000000000000000000000000000039
:103790000000000001025735353030004932020088
:1037A0004B3202004F3202004D320200233202003F
:1037B00027320200000000000000000000000000AE
:1037C0000000000000000000000000000090D00396
:020000041000EA
:04120C00FEFFFFFFE3
:040000050001F20103
:00000001FF
